{
  "_format": "hh-sol-artifact-1",
  "contractName": "MembershipPass1155",
  "sourceName": "contracts/MembershipPass1155.sol",
  "abi": [
    {
      "inputs": [
        {
          "internalType": "string",
          "name": "uri",
          "type": "string"
        },
        {
          "internalType": "address",
          "name": "admin",
          "type": "address"
        }
      ],
      "stateMutability": "nonpayable",
      "type": "constructor"
    },
    {
      "inputs": [],
      "name": "AccessControlBadConfirmation",
      "type": "error"
    },
    {
      "inputs": [
        {
          "internalType": "address",
          "name": "account",
          "type": "address"
        },
        {
          "internalType": "bytes32",
          "name": "neededRole",
          "type": "bytes32"
        }
      ],
      "name": "AccessControlUnauthorizedAccount",
      "type": "error"
    },
    {
      "inputs": [
        {
          "internalType": "uint256",
          "name": "expected",
          "type": "uint256"
        },
        {
          "internalType": "uint256",
          "name": "provided",
          "type": "uint256"
        }
      ],
      "name": "AmountMismatch",
      "type": "error"
    },
    {
      "inputs": [
        {
          "internalType": "uint256",
          "name": "courseId",
          "type": "uint256"
        }
      ],
      "name": "CourseAlreadyExists",
      "type": "error"
    },
    {
      "inputs": [
        {
          "internalType": "uint256",
          "name": "courseId",
          "type": "uint256"
        }
      ],
      "name": "CourseNotFound",
      "type": "error"
    },
    {
      "inputs": [
        {
          "internalType": "address",
          "name": "sender",
          "type": "address"
        },
        {
          "internalType": "uint256",
          "name": "balance",
          "type": "uint256"
        },
        {
          "internalType": "uint256",
          "name": "needed",
          "type": "uint256"
        },
        {
          "internalType": "uint256",
          "name": "tokenId",
          "type": "uint256"
        }
      ],
      "name": "ERC1155InsufficientBalance",
      "type": "error"
    },
    {
      "inputs": [
        {
          "internalType": "address",
          "name": "approver",
          "type": "address"
        }
      ],
      "name": "ERC1155InvalidApprover",
      "type": "error"
    },
    {
      "inputs": [
        {
          "internalType": "uint256",
          "name": "idsLength",
          "type": "uint256"
        },
        {
          "internalType": "uint256",
          "name": "valuesLength",
          "type": "uint256"
        }
      ],
      "name": "ERC1155InvalidArrayLength",
      "type": "error"
    },
    {
      "inputs": [
        {
          "internalType": "address",
          "name": "operator",
          "type": "address"
        }
      ],
      "name": "ERC1155InvalidOperator",
      "type": "error"
    },
    {
      "inputs": [
        {
          "internalType": "address",
          "name": "receiver",
          "type": "address"
        }
      ],
      "name": "ERC1155InvalidReceiver",
      "type": "error"
    },
    {
      "inputs": [
        {
          "internalType": "address",
          "name": "sender",
          "type": "address"
        }
      ],
      "name": "ERC1155InvalidSender",
      "type": "error"
    },
    {
      "inputs": [
        {
          "internalType": "address",
          "name": "operator",
          "type": "address"
        },
        {
          "internalType": "address",
          "name": "owner",
          "type": "address"
        }
      ],
      "name": "ERC1155MissingApprovalForAll",
      "type": "error"
    },
    {
      "inputs": [],
      "name": "EnforcedPause",
      "type": "error"
    },
    {
      "inputs": [],
      "name": "ExpectedPause",
      "type": "error"
    },
    {
      "inputs": [],
      "name": "InvalidDuration",
      "type": "error"
    },
    {
      "inputs": [],
      "name": "InvalidSplitter",
      "type": "error"
    },
    {
      "inputs": [
        {
          "internalType": "uint256",
          "name": "courseId",
          "type": "uint256"
        },
        {
          "internalType": "address",
          "name": "account",
          "type": "address"
        }
      ],
      "name": "NotCourseCreator",
      "type": "error"
    },
    {
      "inputs": [
        {
          "internalType": "uint256",
          "name": "courseId",
          "type": "uint256"
        },
        {
          "internalType": "address",
          "name": "account",
          "type": "address"
        },
        {
          "internalType": "uint64",
          "name": "expiredAt",
          "type": "uint64"
        }
      ],
      "name": "PassExpired",
      "type": "error"
    },
    {
      "inputs": [],
      "name": "ReentrancyGuardReentrantCall",
      "type": "error"
    },
    {
      "inputs": [
        {
          "internalType": "uint256",
          "name": "courseId",
          "type": "uint256"
        },
        {
          "internalType": "address",
          "name": "account",
          "type": "address"
        }
      ],
      "name": "RenewalNotAllowed",
      "type": "error"
    },
    {
      "inputs": [
        {
          "internalType": "uint256",
          "name": "courseId",
          "type": "uint256"
        },
        {
          "internalType": "address",
          "name": "account",
          "type": "address"
        },
        {
          "internalType": "uint64",
          "name": "availableAt",
          "type": "uint64"
        }
      ],
      "name": "TransferCooldownActive",
      "type": "error"
    },
    {
      "inputs": [
        {
          "internalType": "address",
          "name": "caller",
          "type": "address"
        }
      ],
      "name": "TransferRestricted",
      "type": "error"
    },
    {
      "anonymous": false,
      "inputs": [
        {
          "indexed": true,
          "internalType": "address",
          "name": "account",
          "type": "address"
        },
        {
          "indexed": true,
          "internalType": "address",
          "name": "operator",
          "type": "address"
        },
        {
          "indexed": false,
          "internalType": "bool",
          "name": "approved",
          "type": "bool"
        }
      ],
      "name": "ApprovalForAll",
      "type": "event"
    },
    {
      "anonymous": false,
      "inputs": [
        {
          "indexed": true,
          "internalType": "uint256",
          "name": "courseId",
          "type": "uint256"
        },
        {
          "indexed": false,
          "internalType": "uint64",
          "name": "duration",
          "type": "uint64"
        },
        {
          "indexed": false,
          "internalType": "uint64",
          "name": "transferCooldown",
          "type": "uint64"
        }
      ],
      "name": "CourseConfigUpdated",
      "type": "event"
    },
    {
      "anonymous": false,
      "inputs": [
        {
          "indexed": true,
          "internalType": "uint256",
          "name": "courseId",
          "type": "uint256"
        },
        {
          "indexed": false,
          "internalType": "uint256",
          "name": "price",
          "type": "uint256"
        },
        {
          "indexed": true,
          "internalType": "address",
          "name": "splitter",
          "type": "address"
        },
        {
          "indexed": true,
          "internalType": "address",
          "name": "creator",
          "type": "address"
        },
        {
          "indexed": false,
          "internalType": "uint64",
          "name": "duration",
          "type": "uint64"
        },
        {
          "indexed": false,
          "internalType": "uint64",
          "name": "transferCooldown",
          "type": "uint64"
        }
      ],
      "name": "CourseCreated",
      "type": "event"
    },
    {
      "anonymous": false,
      "inputs": [
        {
          "indexed": true,
          "internalType": "uint256",
          "name": "courseId",
          "type": "uint256"
        },
        {
          "indexed": false,
          "internalType": "uint256",
          "name": "oldPrice",
          "type": "uint256"
        },
        {
          "indexed": false,
          "internalType": "uint256",
          "name": "newPrice",
          "type": "uint256"
        }
      ],
      "name": "CoursePriceUpdated",
      "type": "event"
    },
    {
      "anonymous": false,
      "inputs": [
        {
          "indexed": true,
          "internalType": "uint256",
          "name": "courseId",
          "type": "uint256"
        },
        {
          "indexed": false,
          "internalType": "address",
          "name": "oldSplitter",
          "type": "address"
        },
        {
          "indexed": false,
          "internalType": "address",
          "name": "newSplitter",
          "type": "address"
        }
      ],
      "name": "CourseSplitterUpdated",
      "type": "event"
    },
    {
      "anonymous": false,
      "inputs": [
        {
          "indexed": true,
          "internalType": "uint256",
          "name": "courseId",
          "type": "uint256"
        },
        {
          "indexed": true,
          "internalType": "address",
          "name": "buyer",
          "type": "address"
        },
        {
          "indexed": false,
          "internalType": "uint256",
          "name": "amountPaid",
          "type": "uint256"
        },
        {
          "indexed": false,
          "internalType": "uint64",
          "name": "expiresAt",
          "type": "uint64"
        }
      ],
      "name": "PassMinted",
      "type": "event"
    },
    {
      "anonymous": false,
      "inputs": [
        {
          "indexed": true,
          "internalType": "uint256",
          "name": "courseId",
          "type": "uint256"
        },
        {
          "indexed": true,
          "internalType": "address",
          "name": "account",
          "type": "address"
        },
        {
          "indexed": false,
          "internalType": "uint256",
          "name": "amountPaid",
          "type": "uint256"
        },
        {
          "indexed": false,
          "internalType": "uint64",
          "name": "previousExpiry",
          "type": "uint64"
        },
        {
          "indexed": false,
          "internalType": "uint64",
          "name": "newExpiry",
          "type": "uint64"
        }
      ],
      "name": "PassRenewed",
      "type": "event"
    },
    {
      "anonymous": false,
      "inputs": [
        {
          "indexed": true,
          "internalType": "uint256",
          "name": "courseId",
          "type": "uint256"
        },
        {
          "indexed": true,
          "internalType": "address",
          "name": "account",
          "type": "address"
        },
        {
          "indexed": false,
          "internalType": "uint64",
          "name": "expiresAt",
          "type": "uint64"
        },
        {
          "indexed": false,
          "internalType": "uint64",
          "name": "cooldownEndsAt",
          "type": "uint64"
        }
      ],
      "name": "PassStateUpdated",
      "type": "event"
    },
    {
      "anonymous": false,
      "inputs": [
        {
          "indexed": false,
          "internalType": "address",
          "name": "account",
          "type": "address"
        }
      ],
      "name": "Paused",
      "type": "event"
    },
    {
      "anonymous": false,
      "inputs": [
        {
          "indexed": true,
          "internalType": "bytes32",
          "name": "role",
          "type": "bytes32"
        },
        {
          "indexed": true,
          "internalType": "bytes32",
          "name": "previousAdminRole",
          "type": "bytes32"
        },
        {
          "indexed": true,
          "internalType": "bytes32",
          "name": "newAdminRole",
          "type": "bytes32"
        }
      ],
      "name": "RoleAdminChanged",
      "type": "event"
    },
    {
      "anonymous": false,
      "inputs": [
        {
          "indexed": true,
          "internalType": "bytes32",
          "name": "role",
          "type": "bytes32"
        },
        {
          "indexed": true,
          "internalType": "address",
          "name": "account",
          "type": "address"
        },
        {
          "indexed": true,
          "internalType": "address",
          "name": "sender",
          "type": "address"
        }
      ],
      "name": "RoleGranted",
      "type": "event"
    },
    {
      "anonymous": false,
      "inputs": [
        {
          "indexed": true,
          "internalType": "bytes32",
          "name": "role",
          "type": "bytes32"
        },
        {
          "indexed": true,
          "internalType": "address",
          "name": "account",
          "type": "address"
        },
        {
          "indexed": true,
          "internalType": "address",
          "name": "sender",
          "type": "address"
        }
      ],
      "name": "RoleRevoked",
      "type": "event"
    },
    {
      "anonymous": false,
      "inputs": [
        {
          "indexed": true,
          "internalType": "address",
          "name": "operator",
          "type": "address"
        },
        {
          "indexed": true,
          "internalType": "address",
          "name": "from",
          "type": "address"
        },
        {
          "indexed": true,
          "internalType": "address",
          "name": "to",
          "type": "address"
        },
        {
          "indexed": false,
          "internalType": "uint256[]",
          "name": "ids",
          "type": "uint256[]"
        },
        {
          "indexed": false,
          "internalType": "uint256[]",
          "name": "values",
          "type": "uint256[]"
        }
      ],
      "name": "TransferBatch",
      "type": "event"
    },
    {
      "anonymous": false,
      "inputs": [
        {
          "indexed": true,
          "internalType": "address",
          "name": "operator",
          "type": "address"
        },
        {
          "indexed": true,
          "internalType": "address",
          "name": "from",
          "type": "address"
        },
        {
          "indexed": true,
          "internalType": "address",
          "name": "to",
          "type": "address"
        },
        {
          "indexed": false,
          "internalType": "uint256",
          "name": "id",
          "type": "uint256"
        },
        {
          "indexed": false,
          "internalType": "uint256",
          "name": "value",
          "type": "uint256"
        }
      ],
      "name": "TransferSingle",
      "type": "event"
    },
    {
      "anonymous": false,
      "inputs": [
        {
          "indexed": false,
          "internalType": "string",
          "name": "value",
          "type": "string"
        },
        {
          "indexed": true,
          "internalType": "uint256",
          "name": "id",
          "type": "uint256"
        }
      ],
      "name": "URI",
      "type": "event"
    },
    {
      "anonymous": false,
      "inputs": [
        {
          "indexed": false,
          "internalType": "address",
          "name": "account",
          "type": "address"
        }
      ],
      "name": "Unpaused",
      "type": "event"
    },
    {
      "inputs": [],
      "name": "ADMIN_ROLE",
      "outputs": [
        {
          "internalType": "bytes32",
          "name": "",
          "type": "bytes32"
        }
      ],
      "stateMutability": "view",
      "type": "function"
    },
    {
      "inputs": [],
      "name": "CREATOR_ROLE",
      "outputs": [
        {
          "internalType": "bytes32",
          "name": "",
          "type": "bytes32"
        }
      ],
      "stateMutability": "view",
      "type": "function"
    },
    {
      "inputs": [],
      "name": "DEFAULT_ADMIN_ROLE",
      "outputs": [
        {
          "internalType": "bytes32",
          "name": "",
          "type": "bytes32"
        }
      ],
      "stateMutability": "view",
      "type": "function"
    },
    {
      "inputs": [],
      "name": "MARKETPLACE_ROLE",
      "outputs": [
        {
          "internalType": "bytes32",
          "name": "",
          "type": "bytes32"
        }
      ],
      "stateMutability": "view",
      "type": "function"
    },
    {
      "inputs": [],
      "name": "REGISTRAR_ROLE",
      "outputs": [
        {
          "internalType": "bytes32",
          "name": "",
          "type": "bytes32"
        }
      ],
      "stateMutability": "view",
      "type": "function"
    },
    {
      "inputs": [
        {
          "internalType": "address",
          "name": "account",
          "type": "address"
        },
        {
          "internalType": "uint256",
          "name": "id",
          "type": "uint256"
        }
      ],
      "name": "balanceOf",
      "outputs": [
        {
          "internalType": "uint256",
          "name": "",
          "type": "uint256"
        }
      ],
      "stateMutability": "view",
      "type": "function"
    },
    {
      "inputs": [
        {
          "internalType": "address[]",
          "name": "accounts",
          "type": "address[]"
        },
        {
          "internalType": "uint256[]",
          "name": "ids",
          "type": "uint256[]"
        }
      ],
      "name": "balanceOfBatch",
      "outputs": [
        {
          "internalType": "uint256[]",
          "name": "",
          "type": "uint256[]"
        }
      ],
      "stateMutability": "view",
      "type": "function"
    },
    {
      "inputs": [
        {
          "internalType": "uint256",
          "name": "courseId",
          "type": "uint256"
        },
        {
          "internalType": "address",
          "name": "account",
          "type": "address"
        }
      ],
      "name": "canTransfer",
      "outputs": [
        {
          "internalType": "bool",
          "name": "eligible",
          "type": "bool"
        },
        {
          "internalType": "uint64",
          "name": "availableAt",
          "type": "uint64"
        },
        {
          "internalType": "uint64",
          "name": "expiresAt",
          "type": "uint64"
        }
      ],
      "stateMutability": "view",
      "type": "function"
    },
    {
      "inputs": [
        {
          "internalType": "uint256",
          "name": "courseId",
          "type": "uint256"
        },
        {
          "internalType": "uint256",
          "name": "price",
          "type": "uint256"
        },
        {
          "internalType": "address",
          "name": "splitter",
          "type": "address"
        },
        {
          "internalType": "address",
          "name": "creator",
          "type": "address"
        },
        {
          "internalType": "uint64",
          "name": "duration",
          "type": "uint64"
        },
        {
          "internalType": "uint64",
          "name": "transferCooldown",
          "type": "uint64"
        }
      ],
      "name": "createCourse",
      "outputs": [],
      "stateMutability": "nonpayable",
      "type": "function"
    },
    {
      "inputs": [
        {
          "internalType": "uint256",
          "name": "id",
          "type": "uint256"
        }
      ],
      "name": "exists",
      "outputs": [
        {
          "internalType": "bool",
          "name": "",
          "type": "bool"
        }
      ],
      "stateMutability": "view",
      "type": "function"
    },
    {
      "inputs": [
        {
          "internalType": "uint256",
          "name": "courseId",
          "type": "uint256"
        },
        {
          "internalType": "address",
          "name": "account",
          "type": "address"
        },
        {
          "internalType": "uint256",
          "name": "amountPaid",
          "type": "uint256"
        },
        {
          "internalType": "uint64",
          "name": "additionalDuration",
          "type": "uint64"
        }
      ],
      "name": "extendPass",
      "outputs": [],
      "stateMutability": "nonpayable",
      "type": "function"
    },
    {
      "inputs": [
        {
          "internalType": "uint256",
          "name": "courseId",
          "type": "uint256"
        }
      ],
      "name": "getCourse",
      "outputs": [
        {
          "components": [
            {
              "internalType": "uint256",
              "name": "price",
              "type": "uint256"
            },
            {
              "internalType": "address",
              "name": "splitter",
              "type": "address"
            },
            {
              "internalType": "address",
              "name": "creator",
              "type": "address"
            },
            {
              "internalType": "uint64",
              "name": "duration",
              "type": "uint64"
            },
            {
              "internalType": "uint64",
              "name": "transferCooldown",
              "type": "uint64"
            }
          ],
          "internalType": "struct MembershipPass1155.Course",
          "name": "",
          "type": "tuple"
        }
      ],
      "stateMutability": "view",
      "type": "function"
    },
    {
      "inputs": [
        {
          "internalType": "uint256",
          "name": "courseId",
          "type": "uint256"
        },
        {
          "internalType": "address",
          "name": "account",
          "type": "address"
        }
      ],
      "name": "getPassState",
      "outputs": [
        {
          "components": [
            {
              "internalType": "uint64",
              "name": "expiresAt",
              "type": "uint64"
            },
            {
              "internalType": "uint64",
              "name": "cooldownEndsAt",
              "type": "uint64"
            }
          ],
          "internalType": "struct MembershipPass1155.PassState",
          "name": "",
          "type": "tuple"
        }
      ],
      "stateMutability": "view",
      "type": "function"
    },
    {
      "inputs": [
        {
          "internalType": "bytes32",
          "name": "role",
          "type": "bytes32"
        }
      ],
      "name": "getRoleAdmin",
      "outputs": [
        {
          "internalType": "bytes32",
          "name": "",
          "type": "bytes32"
        }
      ],
      "stateMutability": "view",
      "type": "function"
    },
    {
      "inputs": [
        {
          "internalType": "bytes32",
          "name": "role",
          "type": "bytes32"
        },
        {
          "internalType": "address",
          "name": "account",
          "type": "address"
        }
      ],
      "name": "grantRole",
      "outputs": [],
      "stateMutability": "nonpayable",
      "type": "function"
    },
    {
      "inputs": [
        {
          "internalType": "address",
          "name": "account",
          "type": "address"
        },
        {
          "internalType": "uint256",
          "name": "courseId",
          "type": "uint256"
        }
      ],
      "name": "hasPass",
      "outputs": [
        {
          "internalType": "bool",
          "name": "",
          "type": "bool"
        }
      ],
      "stateMutability": "view",
      "type": "function"
    },
    {
      "inputs": [
        {
          "internalType": "bytes32",
          "name": "role",
          "type": "bytes32"
        },
        {
          "internalType": "address",
          "name": "account",
          "type": "address"
        }
      ],
      "name": "hasRole",
      "outputs": [
        {
          "internalType": "bool",
          "name": "",
          "type": "bool"
        }
      ],
      "stateMutability": "view",
      "type": "function"
    },
    {
      "inputs": [
        {
          "internalType": "address",
          "name": "account",
          "type": "address"
        },
        {
          "internalType": "address",
          "name": "operator",
          "type": "address"
        }
      ],
      "name": "isApprovedForAll",
      "outputs": [
        {
          "internalType": "bool",
          "name": "",
          "type": "bool"
        }
      ],
      "stateMutability": "view",
      "type": "function"
    },
    {
      "inputs": [
        {
          "internalType": "uint256",
          "name": "courseId",
          "type": "uint256"
        },
        {
          "internalType": "address",
          "name": "account",
          "type": "address"
        }
      ],
      "name": "isPassActive",
      "outputs": [
        {
          "internalType": "bool",
          "name": "",
          "type": "bool"
        }
      ],
      "stateMutability": "view",
      "type": "function"
    },
    {
      "inputs": [
        {
          "internalType": "address",
          "name": "to",
          "type": "address"
        },
        {
          "internalType": "uint256",
          "name": "courseId",
          "type": "uint256"
        },
        {
          "internalType": "uint256",
          "name": "amountPaid",
          "type": "uint256"
        }
      ],
      "name": "marketplaceMint",
      "outputs": [],
      "stateMutability": "nonpayable",
      "type": "function"
    },
    {
      "inputs": [],
      "name": "pause",
      "outputs": [],
      "stateMutability": "nonpayable",
      "type": "function"
    },
    {
      "inputs": [],
      "name": "paused",
      "outputs": [
        {
          "internalType": "bool",
          "name": "",
          "type": "bool"
        }
      ],
      "stateMutability": "view",
      "type": "function"
    },
    {
      "inputs": [
        {
          "internalType": "bytes32",
          "name": "role",
          "type": "bytes32"
        },
        {
          "internalType": "address",
          "name": "callerConfirmation",
          "type": "address"
        }
      ],
      "name": "renounceRole",
      "outputs": [],
      "stateMutability": "nonpayable",
      "type": "function"
    },
    {
      "inputs": [
        {
          "internalType": "bytes32",
          "name": "role",
          "type": "bytes32"
        },
        {
          "internalType": "address",
          "name": "account",
          "type": "address"
        }
      ],
      "name": "revokeRole",
      "outputs": [],
      "stateMutability": "nonpayable",
      "type": "function"
    },
    {
      "inputs": [
        {
          "internalType": "address",
          "name": "from",
          "type": "address"
        },
        {
          "internalType": "address",
          "name": "to",
          "type": "address"
        },
        {
          "internalType": "uint256[]",
          "name": "ids",
          "type": "uint256[]"
        },
        {
          "internalType": "uint256[]",
          "name": "values",
          "type": "uint256[]"
        },
        {
          "internalType": "bytes",
          "name": "data",
          "type": "bytes"
        }
      ],
      "name": "safeBatchTransferFrom",
      "outputs": [],
      "stateMutability": "nonpayable",
      "type": "function"
    },
    {
      "inputs": [
        {
          "internalType": "address",
          "name": "from",
          "type": "address"
        },
        {
          "internalType": "address",
          "name": "to",
          "type": "address"
        },
        {
          "internalType": "uint256",
          "name": "id",
          "type": "uint256"
        },
        {
          "internalType": "uint256",
          "name": "value",
          "type": "uint256"
        },
        {
          "internalType": "bytes",
          "name": "data",
          "type": "bytes"
        }
      ],
      "name": "safeTransferFrom",
      "outputs": [],
      "stateMutability": "nonpayable",
      "type": "function"
    },
    {
      "inputs": [
        {
          "internalType": "address",
          "name": "operator",
          "type": "address"
        },
        {
          "internalType": "bool",
          "name": "approved",
          "type": "bool"
        }
      ],
      "name": "setApprovalForAll",
      "outputs": [],
      "stateMutability": "nonpayable",
      "type": "function"
    },
    {
      "inputs": [
        {
          "internalType": "uint256",
          "name": "courseId",
          "type": "uint256"
        },
        {
          "internalType": "uint64",
          "name": "duration",
          "type": "uint64"
        },
        {
          "internalType": "uint64",
          "name": "transferCooldown",
          "type": "uint64"
        }
      ],
      "name": "setCourseConfig",
      "outputs": [],
      "stateMutability": "nonpayable",
      "type": "function"
    },
    {
      "inputs": [
        {
          "internalType": "uint256",
          "name": "courseId",
          "type": "uint256"
        },
        {
          "internalType": "uint256",
          "name": "newPrice",
          "type": "uint256"
        }
      ],
      "name": "setPrice",
      "outputs": [],
      "stateMutability": "nonpayable",
      "type": "function"
    },
    {
      "inputs": [
        {
          "internalType": "uint256",
          "name": "courseId",
          "type": "uint256"
        },
        {
          "internalType": "address",
          "name": "newSplitter",
          "type": "address"
        }
      ],
      "name": "setSplitter",
      "outputs": [],
      "stateMutability": "nonpayable",
      "type": "function"
    },
    {
      "inputs": [
        {
          "internalType": "string",
          "name": "newURI",
          "type": "string"
        }
      ],
      "name": "setURI",
      "outputs": [],
      "stateMutability": "nonpayable",
      "type": "function"
    },
    {
      "inputs": [
        {
          "internalType": "bytes4",
          "name": "interfaceId",
          "type": "bytes4"
        }
      ],
      "name": "supportsInterface",
      "outputs": [
        {
          "internalType": "bool",
          "name": "",
          "type": "bool"
        }
      ],
      "stateMutability": "view",
      "type": "function"
    },
    {
      "inputs": [],
      "name": "totalSupply",
      "outputs": [
        {
          "internalType": "uint256",
          "name": "",
          "type": "uint256"
        }
      ],
      "stateMutability": "view",
      "type": "function"
    },
    {
      "inputs": [
        {
          "internalType": "uint256",
          "name": "id",
          "type": "uint256"
        }
      ],
      "name": "totalSupply",
      "outputs": [
        {
          "internalType": "uint256",
          "name": "",
          "type": "uint256"
        }
      ],
      "stateMutability": "view",
      "type": "function"
    },
    {
      "inputs": [],
      "name": "unpause",
      "outputs": [],
      "stateMutability": "nonpayable",
      "type": "function"
    },
    {
      "inputs": [
        {
          "internalType": "uint256",
          "name": "",
          "type": "uint256"
        }
      ],
      "name": "uri",
      "outputs": [
        {
          "internalType": "string",
          "name": "",
          "type": "string"
        }
      ],
      "stateMutability": "view",
      "type": "function"
    }
  ],
  "bytecode": "0x608060405234801561001057600080fd5b5060405161327c38038061327c83398101604081905261002f9161016f565b816100398161007d565b50600160075561004a60008261008d565b506100757fa49807205ce4d355092ef5a8a18f56e8913cf4a201fbe287825b095693c217758261008d565b505050610393565b600261008982826102d5565b5050565b60008281526005602090815260408083206001600160a01b038516845290915281205460ff166101335760008381526005602090815260408083206001600160a01b03861684529091529020805460ff191660011790556100eb3390565b6001600160a01b0316826001600160a01b0316847f2f8788117e7eff1d82e926ec794901d17c78024a50270940304540a733656f0d60405160405180910390a4506001610137565b5060005b92915050565b634e487b7160e01b600052604160045260246000fd5b80516001600160a01b038116811461016a57600080fd5b919050565b6000806040838503121561018257600080fd5b82516001600160401b0381111561019857600080fd5b8301601f810185136101a957600080fd5b80516001600160401b038111156101c2576101c261013d565b604051601f8201601f19908116603f011681016001600160401b03811182821017156101f0576101f061013d565b60405281815282820160200187101561020857600080fd5b60005b828110156102275760208185018101518383018201520161020b565b5060006020838301015280945050505061024360208401610153565b90509250929050565b600181811c9082168061026057607f821691505b60208210810361028057634e487b7160e01b600052602260045260246000fd5b50919050565b601f8211156102d057806000526020600020601f840160051c810160208510156102ad5750805b601f840160051c820191505b818110156102cd57600081556001016102b9565b50505b505050565b81516001600160401b038111156102ee576102ee61013d565b610302816102fc845461024c565b84610286565b6020601f821160018114610336576000831561031e5750848201515b600019600385901b1c1916600184901b1784556102cd565b600084815260208120601f198516915b828110156103665787850151825560209485019460019092019101610346565b50848210156103845786840151600019600387901b60f8161c191681555b50505050600190811b01905550565b612eda806103a26000396000f3fe608060405234801561001057600080fd5b506004361061021b5760003560e01c80635c975abb11610125578063a22cb465116100ad578063d547741f1161007c578063d547741f146105c4578063e985e9c5146105d7578063f242432a146105ea578063f68e9553146105fd578063f7d975771461062457600080fd5b8063a22cb46514610569578063bd85b0391461057c578063c20728f81461059c578063c3439f3f146105af57600080fd5b80638aeda25a116100f45780638aeda25a146105015780638ec77e761461052857806391d148541461053b5780639e9f0e931461054e578063a217fddf1461056157600080fd5b80635c975abb146104c657806375b238fc146104d157806384429c53146104e65780638456cb59146104f957600080fd5b80632eb2c2d6116101a85780634e1273f4116101775780634e1273f4146103ce5780634f558e79146103ee5780634f7efa9c146104105780635330040f146104235780635b64bd301461043657600080fd5b80632eb2c2d61461038d5780632f2ff15d146103a057806336568abe146103b35780633f4ba83a146103c657600080fd5b80630e2f78ba116101ef5780630e2f78ba146102f55780630e89341c1461032f57806318160ddd1461034f5780631e81756214610357578063248a9ca31461036a57600080fd5b8062fdd58e1461022057806301ffc9a71461024657806302fe5305146102695780630b91e28d1461027e575b600080fd5b61023361022e366004612589565b610637565b6040519081526020015b60405180910390f35b6102596102543660046125c9565b61065f565b604051901515815260200161023d565b61027c610277366004612687565b61066a565b005b61029161028c3660046126d7565b61068f565b60405161023d9190600060a0820190508251825260018060a01b03602084015116602083015260018060a01b0360408401511660408301526001600160401b0360608401511660608301526001600160401b03608084015116608083015292915050565b6103086103033660046126f0565b6106c3565b6040805193151584526001600160401b03928316602085015291169082015260600161023d565b61034261033d3660046126d7565b610795565b60405161023d9190612762565b600454610233565b61027c61036536600461278c565b610829565b6102336103783660046126d7565b60009081526005602052604090206001015490565b61027c61039b366004612882565b610a63565b61027c6103ae3660046126f0565b610aca565b61027c6103c13660046126f0565b610aef565b61027c610b27565b6103e16103dc366004612935565b610b4a565b60405161023d9190612a38565b6102596103fc3660046126d7565b600090815260036020526040902054151590565b61027c61041e366004612a4b565b610c16565b6102596104313660046126f0565b610d0b565b61049f6104443660046126f0565b60408051808201825260008082526020918201819052938452600981528184206001600160a01b03939093168452918252918290208251808401909352546001600160401b038082168452600160401b909104169082015290565b6040805182516001600160401b03908116825260209384015116928101929092520161023d565b60065460ff16610259565b610233600080516020612e8583398151915281565b61027c6104f43660046126f0565b610d95565b61027c610e98565b6102337f828634d95e775031b9ff576b159a8509d3053581a8c9c4d7d86899e0afcd882f81565b610259610536366004612589565b610eb8565b6102596105493660046126f0565b610ecb565b61027c61055c366004612a7e565b610ef6565b610233600081565b61027c610577366004612ae4565b6111a0565b61023361058a3660046126d7565b60009081526003602052604090205490565b61027c6105aa366004612b20565b6111ab565b610233600080516020612e6583398151915281565b61027c6105d23660046126f0565b6112ce565b6102596105e5366004612b5c565b6112f3565b61027c6105f8366004612b86565b611321565b6102337fedcc084d3dcd65a1f7f23c65c46722faca6953d28e43150a467cf43e5c30923881565b61027c610632366004612bde565b611380565b6000818152602081815260408083206001600160a01b03861684529091529020545b92915050565b600061065982611431565b600080516020612e8583398151915261068281611456565b61068b82611460565b5050565b6040805160a0810182526000808252602082018190529181018290526060810182905260808101919091526106598261146c565b60008281526009602090815260408083206001600160a01b038516845282528083208151808301909252546001600160401b03808216808452600160401b909204169282018390529083806107188789610637565b119050600082600001516001600160401b03166000148061074657504283600001516001600160401b031610155b9050600083602001516001600160401b03166000148061077357504284602001516001600160401b031611155b905082801561077f5750815b80156107885750805b9650505050509250925092565b6060600280546107a490612c00565b80601f01602080910402602001604051908101604052809291908181526020018280546107d090612c00565b801561081d5780601f106107f25761010080835404028352916020019161081d565b820191906000526020600020905b81548152906001019060200180831161080057829003601f168201915b50505050509050919050565b61083161151e565b610839611548565b600080516020612e6583398151915261085181611456565b816001600160401b031660000361087b57604051637616640160e01b815260040160405180910390fd5b60006108868661146c565b8051909150158015906108995750805184105b156108c957805160405163ce6b173b60e01b81526004810191909152602481018590526044015b60405180910390fd5b6108d38587610637565b6000036109055760405163ad34f07b60e01b8152600481018790526001600160a01b03861660248201526044016108c0565b60008681526009602090815260408083206001600160a01b03891684529091528120805490916001600160401b03909116904282116109445742610946565b815b90506000610954828861156e565b845467ffffffffffffffff19166001600160401b0382161785559050610979856115a0565b84546fffffffffffffffff00000000000000001916600160401b6001600160401b0392831602178555604080518a81528583166020820152918316908201526001600160a01b038a16908b907f51573726fe18c158eeed2386d035f788e81c93715351219f73a5493a293f8f449060600160405180910390a38354604080516001600160401b038085168252600160401b90930490921660208301526001600160a01b038b16918c917f6c9b5717d6d84a5cc938c626ff94c2e04f253f5b4f4534c2df896a1a8e2ffda5910160405180910390a3505050505050610a5d6001600755565b50505050565b336001600160a01b0386168114801590610a845750610a8286826112f3565b155b15610ab55760405163711bec9160e11b81526001600160a01b038083166004830152871660248201526044016108c0565b610ac286868686866115cd565b505050505050565b600082815260056020526040902060010154610ae581611456565b610a5d8383611634565b6001600160a01b0381163314610b185760405163334bd91960e11b815260040160405180910390fd5b610b2282826116c8565b505050565b600080516020612e85833981519152610b3f81611456565b610b47611735565b50565b60608151835114610b7b5781518351604051635b05999160e01b8152600481019290925260248201526044016108c0565b600083516001600160401b03811115610b9657610b966125e6565b604051908082528060200260200182016040528015610bbf578160200160208202803683370190505b50905060005b8451811015610c0e57602080820286010151610be990602080840287010151610637565b828281518110610bfb57610bfb612c3a565b6020908102919091010152600101610bc5565b509392505050565b610c1e61151e565b610c26611548565b600080516020612e65833981519152610c3e81611456565b6000610c498461146c565b805190915015801590610c5c5750805183105b15610c8757805160405163ce6b173b60e01b81526004810191909152602481018490526044016108c0565b6000610c9282611787565b9050610cb086866001604051806020016040528060008152506117b4565b604080518581526001600160401b03831660208201526001600160a01b0388169187917fbd1b09c41c4f6e036c7158ef71fed4b0a058cccfb14651698db7cbb1b88b2a07910160405180910390a3505050610b226001600755565b6000610d178284610637565b600003610d2657506000610659565b60008381526009602090815260408083206001600160a01b038616845282528083208151808301909252546001600160401b03808216808452600160401b90920416928201929092529103610d7f576001915050610659565b51426001600160401b0390911610159392505050565b610d9d611548565b600082815260086020526040902060018101546001600160a01b0316610dd95760405163071a106f60e11b8152600481018490526024016108c0565b610de38333611811565b610e095760405163266b177160e01b8152600481018490523360248201526044016108c0565b6001600160a01b038216610e305760405163eed7778f60e01b815260040160405180910390fd5b6001810180546001600160a01b038481166001600160a01b0319831681179093556040805191909216808252602082019390935285917f36297e9bd2a333d7a91dd9a853faeca26ea2cdf6c265d17f963acf30b65935fd91015b60405180910390a250505050565b600080516020612e85833981519152610eb081611456565b610b47611856565b6000610ec48284610d0b565b9392505050565b60009182526005602090815260408084206001600160a01b0393909316845291905290205460ff1690565b610efe611548565b7fedcc084d3dcd65a1f7f23c65c46722faca6953d28e43150a467cf43e5c309238610f2881611456565b6000878152600860205260409020600101546001600160a01b031615610f6457604051636f7e2eeb60e01b8152600481018890526024016108c0565b6001600160a01b038516610f8b5760405163eed7778f60e01b815260040160405180910390fd5b6001600160401b038381161480610faa57506001600160401b03828116145b15610fc857604051637616640160e01b815260040160405180910390fd5b6040518060a00160405280878152602001866001600160a01b03168152602001856001600160a01b03168152602001846001600160401b03168152602001836001600160401b0316815250600860008981526020019081526020016000206000820151816000015560208201518160010160006101000a8154816001600160a01b0302191690836001600160a01b0316021790555060408201518160020160006101000a8154816001600160a01b0302191690836001600160a01b0316021790555060608201518160020160146101000a8154816001600160401b0302191690836001600160401b0316021790555060808201518160030160006101000a8154816001600160401b0302191690836001600160401b0316021790555090505060006001600160a01b0316846001600160a01b03161461112d5761112b7f828634d95e775031b9ff576b159a8509d3053581a8c9c4d7d86899e0afcd882f85611634565b505b836001600160a01b0316856001600160a01b0316887fa60ec735ac1d6aaa44f00a1d947cdabb91b1bc88ad363a91dcb1d4b9d96344ce89878760405161118f939291909283526001600160401b03918216602084015216604082015260600190565b60405180910390a450505050505050565b61068b338383611893565b6111b3611548565b600080516020612e858339815191526111cb81611456565b600084815260086020526040902060018101546001600160a01b03166112075760405163071a106f60e11b8152600481018690526024016108c0565b6001600160401b03848116148061122657506001600160401b03838116145b1561124457604051637616640160e01b815260040160405180910390fd5b60028101805467ffffffffffffffff60a01b1916600160a01b6001600160401b038781169182029290921790925560038301805467ffffffffffffffff1916918616918217905560408051928352602083019190915286917f7de2ba5d395df24f909b467e5f700a471d16fc3ce7f87889e15ae83b6eb31474910160405180910390a25050505050565b6000828152600560205260409020600101546112e981611456565b610a5d83836116c8565b6001600160a01b03918216600090815260016020908152604080832093909416825291909152205460ff1690565b336001600160a01b0386168114801590611342575061134086826112f3565b155b156113735760405163711bec9160e11b81526001600160a01b038083166004830152871660248201526044016108c0565b610ac28686868686611929565b611388611548565b600082815260086020526040902060018101546001600160a01b03166113c45760405163071a106f60e11b8152600481018490526024016108c0565b6113ce8333611811565b6113f45760405163266b177160e01b8152600481018490523360248201526044016108c0565b8054828255604080518281526020810185905285917f94400b4ef307fffa575bb3402c4a7f580f0098387e8909e4cc269fedaef8a0379101610e8a565b60006001600160e01b03198216637965db0b60e01b14806106595750610659826119b7565b610b478133611a07565b600261068b8282612c97565b6040805160a081018252600080825260208201819052918101829052606081018290526080810191909152600082815260086020908152604091829020825160a0810184528154815260018201546001600160a01b03908116938201849052600283015490811694820194909452600160a01b9093046001600160401b0390811660608501526003909101541660808301526106595760405163071a106f60e11b8152600481018490526024016108c0565b60026007540361154157604051633ee5aeb560e01b815260040160405180910390fd5b6002600755565b60065460ff161561156c5760405163d93c066560e01b815260040160405180910390fd5b565b60008282016001600160401b038085169082161015610ec457604051637616640160e01b815260040160405180910390fd5b600081608001516001600160401b03166000036115bf57506000919050565b61065942836080015161156e565b6001600160a01b0384166115f757604051632bfa23e760e11b8152600060048201526024016108c0565b6001600160a01b03851661162057604051626a0d4560e21b8152600060048201526024016108c0565b61162d8585858585611a40565b5050505050565b60006116408383610ecb565b6116c05760008381526005602090815260408083206001600160a01b03861684529091529020805460ff191660011790556116783390565b6001600160a01b0316826001600160a01b0316847f2f8788117e7eff1d82e926ec794901d17c78024a50270940304540a733656f0d60405160405180910390a4506001610659565b506000610659565b60006116d48383610ecb565b156116c05760008381526005602090815260408083206001600160a01b0386168085529252808320805460ff1916905551339286917ff6391f5c32d9c69d2a47ea670b442974b53935d1edc7fd64eb21e047a839171b9190a4506001610659565b61173d611a93565b6006805460ff191690557f5db9ee0a495bf2e6ff9c91a7834c1ba4fdd244a5e8aa4e537bd38aeae4b073aa335b6040516001600160a01b03909116815260200160405180910390a1565b600081606001516001600160401b03166000036117a657506000919050565b61065942836060015161156e565b6001600160a01b0384166117de57604051632bfa23e760e11b8152600060048201526024016108c0565b60408051600180825260208201869052818301908152606082018590526080820190925290610ac2600087848487611a40565b600061182b600080516020612e8583398151915283610ecb565b80610ec4575050600091825260086020526040909120600201546001600160a01b0391821691161490565b61185e611548565b6006805460ff191660011790557f62e78cea01bee320cd4e420270b5ea74000d11b0c9f74754ebdbfc544b05a25861176a3390565b6001600160a01b0382166118bc5760405162ced3e160e81b8152600060048201526024016108c0565b6001600160a01b03838116600081815260016020908152604080832094871680845294825291829020805460ff191686151590811790915591519182527f17307eab39ab6107e8899845ad3d59bd9653f200f220920489ca2b5937696c31910160405180910390a3505050565b6001600160a01b03841661195357604051632bfa23e760e11b8152600060048201526024016108c0565b6001600160a01b03851661197c57604051626a0d4560e21b8152600060048201526024016108c0565b604080516001808252602082018690528183019081526060820185905260808201909252906119ae8787848487611a40565b50505050505050565b60006001600160e01b03198216636cdb3d1360e11b14806119e857506001600160e01b031982166303a24d0760e21b145b8061065957506301ffc9a760e01b6001600160e01b0319831614610659565b611a118282610ecb565b61068b5760405163e2517d3f60e01b81526001600160a01b0382166004820152602481018390526044016108c0565b611a4c85858585611ab6565b6001600160a01b0384161561162d5782513390600103611a855760208481015190840151611a7e838989858589611c49565b5050610ac2565b610ac2818787878787611d6d565b60065460ff1661156c57604051638dfc202b60e01b815260040160405180910390fd5b6001600160a01b03841615801590611ad657506001600160a01b03831615155b8015611af75750611af5600080516020612e6583398151915233610ecb565b155b15611b1757604051630589788760e41b81523360048201526024016108c0565b60005b8251811015611c3c576000828281518110611b3757611b37612c3a565b6020026020010151905060006001600160a01b0316866001600160a01b031603611b8457611b7f848381518110611b7057611b70612c3a565b60200260200101518683611e56565b611c33565b6001600160a01b038516611beb5760096000858481518110611ba857611ba8612c3a565b602090810291909101810151825281810192909252604090810160009081206001600160a01b038a168252909252902080546001600160801b0319169055611c33565b611c0f848381518110611c0057611c00612c3a565b60200260200101518783611f94565b611c33848381518110611c2457611c24612c3a565b60200260200101518787612114565b50600101611b1a565b50610a5d8484848461226d565b6001600160a01b0384163b15610ac25760405163f23a6e6160e01b81526001600160a01b0385169063f23a6e6190611c8d9089908990889088908890600401612d55565b6020604051808303816000875af1925050508015611cc8575060408051601f3d908101601f19168201909252611cc591810190612d9a565b60015b611d31573d808015611cf6576040519150601f19603f3d011682016040523d82523d6000602084013e611cfb565b606091505b508051600003611d2957604051632bfa23e760e11b81526001600160a01b03861660048201526024016108c0565b805181602001fd5b6001600160e01b0319811663f23a6e6160e01b146119ae57604051632bfa23e760e11b81526001600160a01b03861660048201526024016108c0565b6001600160a01b0384163b15610ac25760405163bc197c8160e01b81526001600160a01b0385169063bc197c8190611db19089908990889088908890600401612db7565b6020604051808303816000875af1925050508015611dec575060408051601f3d908101601f19168201909252611de991810190612d9a565b60015b611e1a573d808015611cf6576040519150601f19603f3d011682016040523d82523d6000602084013e611cfb565b6001600160e01b0319811663bc197c8160e01b146119ae57604051632bfa23e760e11b81526001600160a01b03861660048201526024016108c0565b80600114611eb05760405162461bcd60e51b815260206004820152602160248201527f4d656d62657273686970206d696e7473207265717569726520616d6f756e74206044820152603160f81b60648201526084016108c0565b6000611ebb8461146c565b90506000611ec882611787565b90506000611ed5836115a0565b6040805180820182526001600160401b038086168252808416602080840191825260008c8152600982528581206001600160a01b038d1680835292528590209351845492518416600160401b026001600160801b03199093169316929092171790915590519192509087907f6c9b5717d6d84a5cc938c626ff94c2e04f253f5b4f4534c2df896a1a8e2ffda590611f8490869086906001600160401b0392831681529116602082015260400190565b60405180910390a3505050505050565b80600114611ff25760405162461bcd60e51b815260206004820152602560248201527f4d656d62657273686970207472616e7366657273207265717569726520616d6f604482015264756e74203160d81b60648201526084016108c0565b6001600160a01b03821615610b225760008381526009602090815260408083206001600160a01b03861684528252918290208251808401909352546001600160401b03808216808552600160401b90920416918301919091521580159061206557504281600001516001600160401b0316105b156120a757805160405163018f520b60e01b8152600481018690526001600160a01b03851660248201526001600160401b0390911660448201526064016108c0565b60208101516001600160401b0316158015906120cf57504281602001516001600160401b0316115b15610a5d576020810151604051630b38c21360e21b8152600481018690526001600160a01b03851660248201526001600160401b0390911660448201526064016108c0565b60008381526009602090815260408083206001600160a01b038616808552818452828520835180850190945280546001600160401b038082168652600160401b82041685870152918652919093526001600160801b03199092169091559061217b8561146c565b9050600081608001516001600160401b03166000146121a7576121a242836080015161156e565b6121aa565b60005b83516040805180820182526001600160401b038084168252808516602080840191825260008d8152600982528581206001600160a01b038d1680835292528590209351845492518416600160401b026001600160801b0319909316931692909217179091559051929350909188907f6c9b5717d6d84a5cc938c626ff94c2e04f253f5b4f4534c2df896a1a8e2ffda59061225c90859087906001600160401b0392831681529116602082015260400190565b60405180910390a350505050505050565b61227984848484612359565b6001600160a01b0384166122f9576000805b83518110156122df57602081810284810182015190860182015160009081526003909252604082208054919283926122c4908490612e15565b909155506122d490508184612e15565b92505060010161228b565b5080600460008282546122f29190612e15565b9091555050505b6001600160a01b038316610a5d576000805b835181101561234857602081810284810182015190860182015160009081526003909252604090912080548290039055919091019060010161230b565b506004805491909103905550505050565b80518251146123885781518151604051635b05999160e01b8152600481019290925260248201526044016108c0565b3360005b835181101561248e576020818102858101820151908501909101516001600160a01b0388161561243f576000828152602081815260408083206001600160a01b038c16845290915290205481811015612418576040516303dee4c560e01b81526001600160a01b038a1660048201526024810182905260448101839052606481018490526084016108c0565b6000838152602081815260408083206001600160a01b038d16845290915290209082900390555b6001600160a01b03871615612484576000828152602081815260408083206001600160a01b038b1684529091528120805483929061247e908490612e15565b90915550505b505060010161238c565b50825160010361250f5760208301516000906020840151909150856001600160a01b0316876001600160a01b0316846001600160a01b03167fc3d58168c5ae7397731d063d5bbf3d657854427343f4c083240f7aacaa2d0f628585604051612500929190918252602082015260400190565b60405180910390a4505061162d565b836001600160a01b0316856001600160a01b0316826001600160a01b03167f4a39dc06d4c0dbc64b70af90fd698a233a518aa5d07e595d983b8c0526c8f7fb868660405161255e929190612e36565b60405180910390a45050505050565b80356001600160a01b038116811461258457600080fd5b919050565b6000806040838503121561259c57600080fd5b6125a58361256d565b946020939093013593505050565b6001600160e01b031981168114610b4757600080fd5b6000602082840312156125db57600080fd5b8135610ec4816125b3565b634e487b7160e01b600052604160045260246000fd5b604051601f8201601f191681016001600160401b0381118282101715612624576126246125e6565b604052919050565b6000806001600160401b03841115612646576126466125e6565b50601f8301601f191660200161265b816125fc565b91505082815283838301111561267057600080fd5b828260208301376000602084830101529392505050565b60006020828403121561269957600080fd5b81356001600160401b038111156126af57600080fd5b8201601f810184136126c057600080fd5b6126cf8482356020840161262c565b949350505050565b6000602082840312156126e957600080fd5b5035919050565b6000806040838503121561270357600080fd5b823591506127136020840161256d565b90509250929050565b6000815180845260005b8181101561274257602081850181015186830182015201612726565b506000602082860101526020601f19601f83011685010191505092915050565b602081526000610ec4602083018461271c565b80356001600160401b038116811461258457600080fd5b600080600080608085870312156127a257600080fd5b843593506127b26020860161256d565b9250604085013591506127c760608601612775565b905092959194509250565b60006001600160401b038211156127eb576127eb6125e6565b5060051b60200190565b600082601f83011261280657600080fd5b8135612819612814826127d2565b6125fc565b8082825260208201915060208360051b86010192508583111561283b57600080fd5b602085015b83811015612858578035835260209283019201612840565b5095945050505050565b600082601f83011261287357600080fd5b610ec48383356020850161262c565b600080600080600060a0868803121561289a57600080fd5b6128a38661256d565b94506128b16020870161256d565b935060408601356001600160401b038111156128cc57600080fd5b6128d8888289016127f5565b93505060608601356001600160401b038111156128f457600080fd5b612900888289016127f5565b92505060808601356001600160401b0381111561291c57600080fd5b61292888828901612862565b9150509295509295909350565b6000806040838503121561294857600080fd5b82356001600160401b0381111561295e57600080fd5b8301601f8101851361296f57600080fd5b803561297d612814826127d2565b8082825260208201915060208360051b85010192508783111561299f57600080fd5b6020840193505b828410156129c8576129b78461256d565b8252602093840193909101906129a6565b945050505060208301356001600160401b038111156129e657600080fd5b6129f2858286016127f5565b9150509250929050565b600081518084526020840193506020830160005b82811015612a2e578151865260209586019590910190600101612a10565b5093949350505050565b602081526000610ec460208301846129fc565b600080600060608486031215612a6057600080fd5b612a698461256d565b95602085013595506040909401359392505050565b60008060008060008060c08789031215612a9757600080fd5b8635955060208701359450612aae6040880161256d565b9350612abc6060880161256d565b9250612aca60808801612775565b9150612ad860a08801612775565b90509295509295509295565b60008060408385031215612af757600080fd5b612b008361256d565b915060208301358015158114612b1557600080fd5b809150509250929050565b600080600060608486031215612b3557600080fd5b83359250612b4560208501612775565b9150612b5360408501612775565b90509250925092565b60008060408385031215612b6f57600080fd5b612b788361256d565b91506127136020840161256d565b600080600080600060a08688031215612b9e57600080fd5b612ba78661256d565b9450612bb56020870161256d565b9350604086013592506060860135915060808601356001600160401b0381111561291c57600080fd5b60008060408385031215612bf157600080fd5b50508035926020909101359150565b600181811c90821680612c1457607f821691505b602082108103612c3457634e487b7160e01b600052602260045260246000fd5b50919050565b634e487b7160e01b600052603260045260246000fd5b601f821115610b2257806000526020600020601f840160051c81016020851015612c775750805b601f840160051c820191505b8181101561162d5760008155600101612c83565b81516001600160401b03811115612cb057612cb06125e6565b612cc481612cbe8454612c00565b84612c50565b6020601f821160018114612cf85760008315612ce05750848201515b600019600385901b1c1916600184901b17845561162d565b600084815260208120601f198516915b82811015612d285787850151825560209485019460019092019101612d08565b5084821015612d465786840151600019600387901b60f8161c191681555b50505050600190811b01905550565b6001600160a01b03868116825285166020820152604081018490526060810183905260a060808201819052600090612d8f9083018461271c565b979650505050505050565b600060208284031215612dac57600080fd5b8151610ec4816125b3565b6001600160a01b0386811682528516602082015260a060408201819052600090612de3908301866129fc565b8281036060840152612df581866129fc565b90508281036080840152612e09818561271c565b98975050505050505050565b8082018082111561065957634e487b7160e01b600052601160045260246000fd5b604081526000612e4960408301856129fc565b8281036020840152612e5b81856129fc565b9594505050505056fe0ea61da3a8a09ad801432653699f8c1860b1ae9d2ea4a141fadfd63227717bc8a49807205ce4d355092ef5a8a18f56e8913cf4a201fbe287825b095693c21775a26469706673582212205aa34e8cadd19ed10b4fc3fdfa66dc825b9b01522b3abdf6f1d8618ee9238dd764736f6c634300081c0033",
  "linkReferences": {},
  "deployedLinkReferences": {}
}