{
  "_format": "hh-sol-artifact-1",
  "contractName": "MembershipMarketplace",
  "sourceName": "contracts/MembershipMarketplace.sol",
  "abi": [
    {
      "inputs": [
        {
          "internalType": "contract MembershipPass1155",
          "name": "membershipContract",
          "type": "address"
        },
        {
          "internalType": "contract IERC20",
          "name": "paymentToken_",
          "type": "address"
        },
        {
          "internalType": "address",
          "name": "admin",
          "type": "address"
        },
        {
          "internalType": "address",
          "name": "treasuryAddress",
          "type": "address"
        },
        {
          "internalType": "uint96",
          "name": "feeBps",
          "type": "uint96"
        },
        {
          "internalType": "uint64",
          "name": "listingDuration",
          "type": "uint64"
        }
      ],
      "stateMutability": "nonpayable",
      "type": "constructor"
    },
    {
      "inputs": [],
      "name": "AccessControlBadConfirmation",
      "type": "error"
    },
    {
      "inputs": [
        {
          "internalType": "address",
          "name": "account",
          "type": "address"
        },
        {
          "internalType": "bytes32",
          "name": "neededRole",
          "type": "bytes32"
        }
      ],
      "name": "AccessControlUnauthorizedAccount",
      "type": "error"
    },
    {
      "inputs": [
        {
          "internalType": "uint64",
          "name": "availableAt",
          "type": "uint64"
        }
      ],
      "name": "CooldownActive",
      "type": "error"
    },
    {
      "inputs": [],
      "name": "DurationTooLong",
      "type": "error"
    },
    {
      "inputs": [],
      "name": "EnforcedPause",
      "type": "error"
    },
    {
      "inputs": [],
      "name": "ExpectedPause",
      "type": "error"
    },
    {
      "inputs": [],
      "name": "InvalidAddress",
      "type": "error"
    },
    {
      "inputs": [],
      "name": "InvalidDuration",
      "type": "error"
    },
    {
      "inputs": [],
      "name": "InvalidFee",
      "type": "error"
    },
    {
      "inputs": [],
      "name": "InvalidPrice",
      "type": "error"
    },
    {
      "inputs": [
        {
          "internalType": "uint256",
          "name": "courseId",
          "type": "uint256"
        },
        {
          "internalType": "address",
          "name": "seller",
          "type": "address"
        }
      ],
      "name": "ListingExpired",
      "type": "error"
    },
    {
      "inputs": [
        {
          "internalType": "uint256",
          "name": "courseId",
          "type": "uint256"
        },
        {
          "internalType": "address",
          "name": "seller",
          "type": "address"
        }
      ],
      "name": "ListingNotFound",
      "type": "error"
    },
    {
      "inputs": [
        {
          "internalType": "uint64",
          "name": "expiredAt",
          "type": "uint64"
        }
      ],
      "name": "MembershipExpired",
      "type": "error"
    },
    {
      "inputs": [],
      "name": "PassNotHeld",
      "type": "error"
    },
    {
      "inputs": [],
      "name": "ReentrancyGuardReentrantCall",
      "type": "error"
    },
    {
      "inputs": [
        {
          "internalType": "address",
          "name": "token",
          "type": "address"
        }
      ],
      "name": "SafeERC20FailedOperation",
      "type": "error"
    },
    {
      "anonymous": false,
      "inputs": [
        {
          "indexed": true,
          "internalType": "uint256",
          "name": "courseId",
          "type": "uint256"
        },
        {
          "indexed": true,
          "internalType": "address",
          "name": "seller",
          "type": "address"
        }
      ],
      "name": "ListingCancelled",
      "type": "event"
    },
    {
      "anonymous": false,
      "inputs": [
        {
          "indexed": true,
          "internalType": "uint256",
          "name": "courseId",
          "type": "uint256"
        },
        {
          "indexed": true,
          "internalType": "address",
          "name": "seller",
          "type": "address"
        },
        {
          "indexed": false,
          "internalType": "uint256",
          "name": "price",
          "type": "uint256"
        },
        {
          "indexed": false,
          "internalType": "uint64",
          "name": "listedAt",
          "type": "uint64"
        },
        {
          "indexed": false,
          "internalType": "uint64",
          "name": "expiresAt",
          "type": "uint64"
        },
        {
          "indexed": false,
          "internalType": "uint64",
          "name": "passExpiresAt",
          "type": "uint64"
        }
      ],
      "name": "ListingCreated",
      "type": "event"
    },
    {
      "anonymous": false,
      "inputs": [
        {
          "indexed": false,
          "internalType": "uint64",
          "name": "previousDuration",
          "type": "uint64"
        },
        {
          "indexed": false,
          "internalType": "uint64",
          "name": "newDuration",
          "type": "uint64"
        }
      ],
      "name": "ListingDurationUpdated",
      "type": "event"
    },
    {
      "anonymous": false,
      "inputs": [
        {
          "indexed": true,
          "internalType": "uint256",
          "name": "courseId",
          "type": "uint256"
        },
        {
          "indexed": true,
          "internalType": "address",
          "name": "seller",
          "type": "address"
        },
        {
          "indexed": true,
          "internalType": "address",
          "name": "buyer",
          "type": "address"
        },
        {
          "indexed": false,
          "internalType": "uint256",
          "name": "price",
          "type": "uint256"
        },
        {
          "indexed": false,
          "internalType": "uint256",
          "name": "feeAmount",
          "type": "uint256"
        }
      ],
      "name": "ListingPurchased",
      "type": "event"
    },
    {
      "anonymous": false,
      "inputs": [
        {
          "indexed": true,
          "internalType": "uint256",
          "name": "courseId",
          "type": "uint256"
        },
        {
          "indexed": true,
          "internalType": "address",
          "name": "account",
          "type": "address"
        },
        {
          "indexed": false,
          "internalType": "uint256",
          "name": "price",
          "type": "uint256"
        },
        {
          "indexed": false,
          "internalType": "uint256",
          "name": "feeAmount",
          "type": "uint256"
        },
        {
          "indexed": false,
          "internalType": "uint64",
          "name": "newExpiry",
          "type": "uint64"
        }
      ],
      "name": "PassRenewedOnMarketplace",
      "type": "event"
    },
    {
      "anonymous": false,
      "inputs": [
        {
          "indexed": false,
          "internalType": "address",
          "name": "account",
          "type": "address"
        }
      ],
      "name": "Paused",
      "type": "event"
    },
    {
      "anonymous": false,
      "inputs": [
        {
          "indexed": false,
          "internalType": "uint96",
          "name": "previousFeeBps",
          "type": "uint96"
        },
        {
          "indexed": false,
          "internalType": "uint96",
          "name": "newFeeBps",
          "type": "uint96"
        }
      ],
      "name": "PlatformFeeUpdated",
      "type": "event"
    },
    {
      "anonymous": false,
      "inputs": [
        {
          "indexed": true,
          "internalType": "uint256",
          "name": "courseId",
          "type": "uint256"
        },
        {
          "indexed": true,
          "internalType": "address",
          "name": "buyer",
          "type": "address"
        },
        {
          "indexed": false,
          "internalType": "uint256",
          "name": "price",
          "type": "uint256"
        },
        {
          "indexed": false,
          "internalType": "uint256",
          "name": "feeAmount",
          "type": "uint256"
        }
      ],
      "name": "PrimaryPurchase",
      "type": "event"
    },
    {
      "anonymous": false,
      "inputs": [
        {
          "indexed": true,
          "internalType": "bytes32",
          "name": "role",
          "type": "bytes32"
        },
        {
          "indexed": true,
          "internalType": "bytes32",
          "name": "previousAdminRole",
          "type": "bytes32"
        },
        {
          "indexed": true,
          "internalType": "bytes32",
          "name": "newAdminRole",
          "type": "bytes32"
        }
      ],
      "name": "RoleAdminChanged",
      "type": "event"
    },
    {
      "anonymous": false,
      "inputs": [
        {
          "indexed": true,
          "internalType": "bytes32",
          "name": "role",
          "type": "bytes32"
        },
        {
          "indexed": true,
          "internalType": "address",
          "name": "account",
          "type": "address"
        },
        {
          "indexed": true,
          "internalType": "address",
          "name": "sender",
          "type": "address"
        }
      ],
      "name": "RoleGranted",
      "type": "event"
    },
    {
      "anonymous": false,
      "inputs": [
        {
          "indexed": true,
          "internalType": "bytes32",
          "name": "role",
          "type": "bytes32"
        },
        {
          "indexed": true,
          "internalType": "address",
          "name": "account",
          "type": "address"
        },
        {
          "indexed": true,
          "internalType": "address",
          "name": "sender",
          "type": "address"
        }
      ],
      "name": "RoleRevoked",
      "type": "event"
    },
    {
      "anonymous": false,
      "inputs": [
        {
          "indexed": true,
          "internalType": "address",
          "name": "previousTreasury",
          "type": "address"
        },
        {
          "indexed": true,
          "internalType": "address",
          "name": "newTreasury",
          "type": "address"
        }
      ],
      "name": "TreasuryUpdated",
      "type": "event"
    },
    {
      "anonymous": false,
      "inputs": [
        {
          "indexed": false,
          "internalType": "address",
          "name": "account",
          "type": "address"
        }
      ],
      "name": "Unpaused",
      "type": "event"
    },
    {
      "inputs": [],
      "name": "DEFAULT_ADMIN_ROLE",
      "outputs": [
        {
          "internalType": "bytes32",
          "name": "",
          "type": "bytes32"
        }
      ],
      "stateMutability": "view",
      "type": "function"
    },
    {
      "inputs": [],
      "name": "FEE_DENOMINATOR",
      "outputs": [
        {
          "internalType": "uint96",
          "name": "",
          "type": "uint96"
        }
      ],
      "stateMutability": "view",
      "type": "function"
    },
    {
      "inputs": [],
      "name": "MANAGER_ROLE",
      "outputs": [
        {
          "internalType": "bytes32",
          "name": "",
          "type": "bytes32"
        }
      ],
      "stateMutability": "view",
      "type": "function"
    },
    {
      "inputs": [],
      "name": "MAX_PLATFORM_FEE_BPS",
      "outputs": [
        {
          "internalType": "uint96",
          "name": "",
          "type": "uint96"
        }
      ],
      "stateMutability": "view",
      "type": "function"
    },
    {
      "inputs": [
        {
          "internalType": "uint256",
          "name": "courseId",
          "type": "uint256"
        },
        {
          "internalType": "address",
          "name": "seller",
          "type": "address"
        },
        {
          "internalType": "uint256",
          "name": "maxPrice",
          "type": "uint256"
        }
      ],
      "name": "buyListing",
      "outputs": [],
      "stateMutability": "nonpayable",
      "type": "function"
    },
    {
      "inputs": [
        {
          "internalType": "uint256",
          "name": "courseId",
          "type": "uint256"
        }
      ],
      "name": "cancelListing",
      "outputs": [],
      "stateMutability": "nonpayable",
      "type": "function"
    },
    {
      "inputs": [
        {
          "internalType": "uint256",
          "name": "courseId",
          "type": "uint256"
        },
        {
          "internalType": "uint256",
          "name": "price",
          "type": "uint256"
        },
        {
          "internalType": "uint64",
          "name": "durationSeconds",
          "type": "uint64"
        }
      ],
      "name": "createListing",
      "outputs": [],
      "stateMutability": "nonpayable",
      "type": "function"
    },
    {
      "inputs": [
        {
          "internalType": "uint256",
          "name": "courseId",
          "type": "uint256"
        }
      ],
      "name": "getActiveListings",
      "outputs": [
        {
          "components": [
            {
              "internalType": "address",
              "name": "seller",
              "type": "address"
            },
            {
              "internalType": "uint256",
              "name": "price",
              "type": "uint256"
            },
            {
              "internalType": "uint64",
              "name": "listedAt",
              "type": "uint64"
            },
            {
              "internalType": "uint64",
              "name": "expiresAt",
              "type": "uint64"
            },
            {
              "internalType": "bool",
              "name": "active",
              "type": "bool"
            }
          ],
          "internalType": "struct MembershipMarketplace.Listing[]",
          "name": "listings",
          "type": "tuple[]"
        }
      ],
      "stateMutability": "view",
      "type": "function"
    },
    {
      "inputs": [
        {
          "internalType": "uint256",
          "name": "courseId",
          "type": "uint256"
        },
        {
          "internalType": "address",
          "name": "seller",
          "type": "address"
        }
      ],
      "name": "getListing",
      "outputs": [
        {
          "components": [
            {
              "internalType": "address",
              "name": "seller",
              "type": "address"
            },
            {
              "internalType": "uint256",
              "name": "price",
              "type": "uint256"
            },
            {
              "internalType": "uint64",
              "name": "listedAt",
              "type": "uint64"
            },
            {
              "internalType": "uint64",
              "name": "expiresAt",
              "type": "uint64"
            },
            {
              "internalType": "bool",
              "name": "active",
              "type": "bool"
            }
          ],
          "internalType": "struct MembershipMarketplace.Listing",
          "name": "",
          "type": "tuple"
        }
      ],
      "stateMutability": "view",
      "type": "function"
    },
    {
      "inputs": [
        {
          "internalType": "bytes32",
          "name": "role",
          "type": "bytes32"
        }
      ],
      "name": "getRoleAdmin",
      "outputs": [
        {
          "internalType": "bytes32",
          "name": "",
          "type": "bytes32"
        }
      ],
      "stateMutability": "view",
      "type": "function"
    },
    {
      "inputs": [
        {
          "internalType": "bytes32",
          "name": "role",
          "type": "bytes32"
        },
        {
          "internalType": "address",
          "name": "account",
          "type": "address"
        }
      ],
      "name": "grantRole",
      "outputs": [],
      "stateMutability": "nonpayable",
      "type": "function"
    },
    {
      "inputs": [
        {
          "internalType": "bytes32",
          "name": "role",
          "type": "bytes32"
        },
        {
          "internalType": "address",
          "name": "account",
          "type": "address"
        }
      ],
      "name": "hasRole",
      "outputs": [
        {
          "internalType": "bool",
          "name": "",
          "type": "bool"
        }
      ],
      "stateMutability": "view",
      "type": "function"
    },
    {
      "inputs": [],
      "name": "maxListingDuration",
      "outputs": [
        {
          "internalType": "uint64",
          "name": "",
          "type": "uint64"
        }
      ],
      "stateMutability": "view",
      "type": "function"
    },
    {
      "inputs": [],
      "name": "membership",
      "outputs": [
        {
          "internalType": "contract MembershipPass1155",
          "name": "",
          "type": "address"
        }
      ],
      "stateMutability": "view",
      "type": "function"
    },
    {
      "inputs": [],
      "name": "pause",
      "outputs": [],
      "stateMutability": "nonpayable",
      "type": "function"
    },
    {
      "inputs": [],
      "name": "paused",
      "outputs": [
        {
          "internalType": "bool",
          "name": "",
          "type": "bool"
        }
      ],
      "stateMutability": "view",
      "type": "function"
    },
    {
      "inputs": [],
      "name": "paymentToken",
      "outputs": [
        {
          "internalType": "contract IERC20",
          "name": "",
          "type": "address"
        }
      ],
      "stateMutability": "view",
      "type": "function"
    },
    {
      "inputs": [],
      "name": "platformFeeBps",
      "outputs": [
        {
          "internalType": "uint96",
          "name": "",
          "type": "uint96"
        }
      ],
      "stateMutability": "view",
      "type": "function"
    },
    {
      "inputs": [
        {
          "internalType": "uint256",
          "name": "courseId",
          "type": "uint256"
        },
        {
          "internalType": "uint256",
          "name": "maxPrice",
          "type": "uint256"
        }
      ],
      "name": "purchasePrimary",
      "outputs": [],
      "stateMutability": "nonpayable",
      "type": "function"
    },
    {
      "inputs": [
        {
          "internalType": "uint256",
          "name": "courseId",
          "type": "uint256"
        },
        {
          "internalType": "uint256",
          "name": "maxPrice",
          "type": "uint256"
        }
      ],
      "name": "renew",
      "outputs": [],
      "stateMutability": "nonpayable",
      "type": "function"
    },
    {
      "inputs": [
        {
          "internalType": "bytes32",
          "name": "role",
          "type": "bytes32"
        },
        {
          "internalType": "address",
          "name": "callerConfirmation",
          "type": "address"
        }
      ],
      "name": "renounceRole",
      "outputs": [],
      "stateMutability": "nonpayable",
      "type": "function"
    },
    {
      "inputs": [
        {
          "internalType": "bytes32",
          "name": "role",
          "type": "bytes32"
        },
        {
          "internalType": "address",
          "name": "account",
          "type": "address"
        }
      ],
      "name": "revokeRole",
      "outputs": [],
      "stateMutability": "nonpayable",
      "type": "function"
    },
    {
      "inputs": [
        {
          "internalType": "uint64",
          "name": "newDuration",
          "type": "uint64"
        }
      ],
      "name": "setMaxListingDuration",
      "outputs": [],
      "stateMutability": "nonpayable",
      "type": "function"
    },
    {
      "inputs": [
        {
          "internalType": "uint96",
          "name": "newFeeBps",
          "type": "uint96"
        }
      ],
      "name": "setPlatformFeeBps",
      "outputs": [],
      "stateMutability": "nonpayable",
      "type": "function"
    },
    {
      "inputs": [
        {
          "internalType": "address",
          "name": "newTreasury",
          "type": "address"
        }
      ],
      "name": "setTreasury",
      "outputs": [],
      "stateMutability": "nonpayable",
      "type": "function"
    },
    {
      "inputs": [
        {
          "internalType": "bytes4",
          "name": "interfaceId",
          "type": "bytes4"
        }
      ],
      "name": "supportsInterface",
      "outputs": [
        {
          "internalType": "bool",
          "name": "",
          "type": "bool"
        }
      ],
      "stateMutability": "view",
      "type": "function"
    },
    {
      "inputs": [],
      "name": "treasury",
      "outputs": [
        {
          "internalType": "address",
          "name": "",
          "type": "address"
        }
      ],
      "stateMutability": "view",
      "type": "function"
    },
    {
      "inputs": [],
      "name": "unpause",
      "outputs": [],
      "stateMutability": "nonpayable",
      "type": "function"
    }
  ],
  "bytecode": "0x60c060405234801561001057600080fd5b5060405161266e38038061266e83398101604081905261002f91610221565b60016002556001600160a01b038616158061005157506001600160a01b038516155b1561006f5760405163e6c4247b60e01b815260040160405180910390fd5b6001600160a01b038416158061008c57506001600160a01b038316155b156100aa5760405163e6c4247b60e01b815260040160405180910390fd5b6103e86001600160601b03831611156100d6576040516358d620b360e01b815260040160405180910390fd5b6001600160a01b0386811660805285811660a0528316600160a01b6001600160601b0384160217600355600480546001600160401b0319166001600160401b03831617905561012660008561015d565b506101517f241ecf16d79d0f8dbfb92cbc07fe17840425976cf0667f022fe9877caa831b088561015d565b505050505050506102c0565b6000828152602081815260408083206001600160a01b038516845290915281205460ff166101ff576000838152602081815260408083206001600160a01b03861684529091529020805460ff191660011790556101b73390565b6001600160a01b0316826001600160a01b0316847f2f8788117e7eff1d82e926ec794901d17c78024a50270940304540a733656f0d60405160405180910390a4506001610203565b5060005b92915050565b6001600160a01b038116811461021e57600080fd5b50565b60008060008060008060c0878903121561023a57600080fd5b865161024581610209565b602088015190965061025681610209565b604088015190955061026781610209565b606088015190945061027881610209565b60808801519093506001600160601b038116811461029557600080fd5b60a08801519092506001600160401b03811681146102b257600080fd5b809150509295509295509295565b60805160a0516123196103556000396000818161028101528181610e7e015281816111d50152818161151501528181611b8e0152611c270152600081816104310152818161058a0152818161064701528181610ca501528181610d4601528181610ee60152818161101c015281816110ad0152818161129b0152818161131d0152818161141f01526115c601526123196000f3fe608060405234801561001057600080fd5b50600436106101c45760003560e01c80638456cb59116100f9578063d0a1985211610097578063def050c511610071578063def050c514610495578063e6987501146104c0578063ec87621c146104e0578063f0f44260146104f557600080fd5b8063d0a1985214610466578063d547741f14610479578063d73792a91461048c57600080fd5b8063935b74c8116100d3578063935b74c814610364578063a217fddf14610424578063a2bf68b91461042c578063c475abff1461045357600080fd5b80638456cb59146103405780638d01513c1461034857806391d148541461035157600080fd5b8063305a67a8116101665780635c975abb116101405780635c975abb146102fc57806360b2cf101461030757806361d027b31461031a5780636266d70a1461032d57600080fd5b8063305a67a8146102ce57806336568abe146102e15780633f4ba83a146102f457600080fd5b8063248a9ca3116101a2578063248a9ca3146102385780632f2ff15d146102695780633013ce291461027c57806330289c01146102bb57600080fd5b806301ffc9a7146101c957806304f1cc5c146101f157806322dcd13e14610206575b600080fd5b6101dc6101d7366004611e5f565b610508565b60405190151581526020015b60405180910390f35b6102046101ff366004611ea5565b61053f565b005b60035461022090600160a01b90046001600160601b031681565b6040516001600160601b0390911681526020016101e8565b61025b610246366004611ede565b60009081526020819052604090206001015490565b6040519081526020016101e8565b610204610277366004611f0c565b610910565b6102a37f000000000000000000000000000000000000000000000000000000000000000081565b6040516001600160a01b0390911681526020016101e8565b6102046102c9366004611f3c565b61093b565b6102046102dc366004611ede565b6109be565b6102046102ef366004611f0c565b610a5e565b610204610a91565b60015460ff166101dc565b610204610315366004611f59565b610ab1565b6003546102a3906001600160a01b031681565b61020461033b366004611f82565b610b6c565b610204610faa565b6102206103e881565b6101dc61035f366004611f0c565b610fca565b610417610372366004611f0c565b6040805160a0810182526000808252602082018190529181018290526060810182905260808101919091525060009182526005602090815260408084206001600160a01b039384168552825292839020835160a08101855281549093168352600181015491830191909152600201546001600160401b0380821693830193909352600160401b81049092166060820152600160801b90910460ff161515608082015290565b6040516101e89190612006565b61025b600081565b6102a37f000000000000000000000000000000000000000000000000000000000000000081565b610204610461366004612014565b610ff3565b610204610474366004612014565b6113f6565b610204610487366004611f0c565b611675565b61022061271081565b6004546104a8906001600160401b031681565b6040516001600160401b0390911681526020016101e8565b6104d36104ce366004611ede565b61169a565b6040516101e89190612036565b61025b6000805160206122c483398151915281565b610204610503366004612084565b611898565b60006001600160e01b03198216637965db0b60e01b148061053957506301ffc9a760e01b6001600160e01b03198316145b92915050565b610547611934565b61054f61195c565b8160000361056f5760405162bfc92160e01b815260040160405180910390fd5b604051627eeac760e11b8152336004820152602481018490527f00000000000000000000000000000000000000000000000000000000000000006001600160a01b03169062fdd58e90604401602060405180830381865afa1580156105d8573d6000803e3d6000fd5b505050506040513d601f19601f820116820180604052508101906105fc91906120a1565b60000361061c5760405163579c562b60e01b815260040160405180910390fd5b604051630717bc5d60e11b815260048101849052336024820152600090819081906001600160a01b037f00000000000000000000000000000000000000000000000000000000000000001690630e2f78ba90604401606060405180830381865afa15801561068e573d6000803e3d6000fd5b505050506040513d601f19601f820116820180604052508101906106b291906120ba565b9250925092508261076c576001600160401b038116158015906106dd575042816001600160401b0316105b1561070a5760405162940cc760e21b81526001600160401b03821660048201526024015b60405180910390fd5b6001600160401b0382161580159061072a575042826001600160401b0316115b15610753576040516315f3b7ab60e01b81526001600160401b0383166004820152602401610701565b60405163579c562b60e01b815260040160405180910390fd5b600061077785611982565b90506001600160401b0381161580159061079957506001600160401b03821615155b80156107b65750816001600160401b0316816001600160401b0316115b156107be5750805b60008781526005602090815260408083203380855290835281842080546001600160a01b03191682178155600181018b905560028101805460ff60801b196001600160401b03898116600160401b026fffffffffffffffffffffffffffffffff199093164291909116179190911716600160801b1790558b85526007845282852091855292529091205460ff166108a25760008881526006602090815260408083208054600181810183559185528385200180546001600160a01b031916339081179091558c855260078452828520908552909252909120805460ff191690911790555b6002810154604080518981526001600160401b0392831660208201528483168183015291851660608301525133918a917faee8c732a9a96ac9b05cf776dd7d1307a2d47dc7fa159d2859c626d95c053fb69181900360800190a3505050505061090b6001600255565b505050565b60008281526020819052604090206001015461092b81611a1d565b6109358383611a27565b50505050565b6000805160206122c483398151915261095381611a1d565b600454604080516001600160401b03928316815291841660208301527fe0143d9667809f0d20f3f965a3664a37ae8eab29a8abf10fcb9f69d21546866c910160405180910390a1506004805467ffffffffffffffff19166001600160401b0392909216919091179055565b6109c6611934565b600081815260056020908152604080832033845290915290206002810154600160801b900460ff16610a1457604051633232d8bd60e21b815260048101839052336024820152604401610701565b60028101805460ff60801b19169055604051339083907f8e25282255ab31897df2b0456bb993ac7f84d376861aefd84901d2d63a7428a290600090a350610a5b6001600255565b50565b6001600160a01b0381163314610a875760405163334bd91960e11b815260040160405180910390fd5b61090b8282611ab9565b6000805160206122c4833981519152610aa981611a1d565b610a5b611b24565b6000805160206122c4833981519152610ac981611a1d565b6103e86001600160601b0383161115610af5576040516358d620b360e01b815260040160405180910390fd5b600354604080516001600160601b03600160a01b9093048316815291841660208301527ffeeddf72b7ee4210b769104cb8b071e5706232ac7f671fb292af429ffd58b587910160405180910390a150600380546001600160601b03909216600160a01b026001600160a01b03909216919091179055565b610b74611934565b610b7c61195c565b60008381526005602090815260408083206001600160a01b038616845290915290206002810154600160801b900460ff16610bdc57604051633232d8bd60e21b8152600481018590526001600160a01b0384166024820152604401610701565b6002810154600160401b90046001600160401b031615801590610c135750600281015442600160401b9091046001600160401b0316105b15610c525760028101805460ff60801b1916905560405163085c83d360e11b8152600481018590526001600160a01b0384166024820152604401610701565b6001810154801580610c6357508281115b15610c805760405162bfc92160e01b815260040160405180910390fd5b604051627eeac760e11b81526001600160a01b038581166004830152602482018790527f0000000000000000000000000000000000000000000000000000000000000000169062fdd58e90604401602060405180830381865afa158015610ceb573d6000803e3d6000fd5b505050506040513d601f19601f82011682018060405250810190610d0f91906120a1565b600003610d3f5760028201805460ff60801b191690556040805163579c562b60e01b815290519081900360040190fd5b60008060007f00000000000000000000000000000000000000000000000000000000000000006001600160a01b0316630e2f78ba89896040518363ffffffff1660e01b8152600401610da49291909182526001600160a01b0316602082015260400190565b606060405180830381865afa158015610dc1573d6000803e3d6000fd5b505050506040513d601f19601f82011682018060405250810190610de591906120ba565b92509250925082610e47576001600160401b03811615801590610e10575042816001600160401b0316105b1561070a5760028501805460ff60801b1916905560405162940cc760e21b81526001600160401b0382166004820152602401610701565b610e5084611b76565b6000610e5b85611bb6565b90506000610e698287612117565b90508015610ea557610ea56001600160a01b037f0000000000000000000000000000000000000000000000000000000000000000168a83611c55565b604051637921219560e11b81526001600160a01b038a81166004830152336024830152604482018c90526001606483015260a06084830152600060a48301527f0000000000000000000000000000000000000000000000000000000000000000169063f242432a9060c401600060405180830381600087803b158015610f2a57600080fd5b505af1158015610f3e573d6000803e3d6000fd5b5050505060028701805460ff60801b19169055604080518781526020810184905233916001600160a01b038c16918d917f67806fb1f9a1d5258c8ae3101868dc1bbd114cb2c1829b37dbdd88d64cf17d82910160405180910390a45050505050505061090b6001600255565b6000805160206122c4833981519152610fc281611a1d565b610a5b611cb4565b6000918252602082815260408084206001600160a01b0393909316845291905290205460ff1690565b610ffb611934565b61100361195c565b604051630b91e28d60e01b8152600481018390526000907f00000000000000000000000000000000000000000000000000000000000000006001600160a01b031690630b91e28d9060240160a060405180830381865afa15801561106b573d6000803e3d6000fd5b505050506040513d601f19601f8201168201806040525081019061108f9190612140565b604051627eeac760e11b8152336004820152602481018590529091507f00000000000000000000000000000000000000000000000000000000000000006001600160a01b03169062fdd58e90604401602060405180830381865afa1580156110fb573d6000803e3d6000fd5b505050506040513d601f19601f8201168201806040525081019061111f91906120a1565b60000361113f5760405163579c562b60e01b815260040160405180910390fd5b80606001516001600160401b031660000361116d57604051637616640160e01b815260040160405180910390fd5b805180158061117b57508281115b156111985760405162bfc92160e01b815260040160405180910390fd5b6111a181611b76565b60006111ac82611bb6565b905060006111ba8284612117565b905080156112635760208401516111fc906001600160a01b037f0000000000000000000000000000000000000000000000000000000000000000169083611c55565b6020840151604051631823a5a360e31b8152336004820152602481018390526001600160a01b039091169063c11d2d1890604401600060405180830381600087803b15801561124a57600080fd5b505af115801561125e573d6000803e3d6000fd5b505050505b6060840151604051630f40bab160e11b815260048101889052336024820152604481018590526001600160401b0390911660648201527f00000000000000000000000000000000000000000000000000000000000000006001600160a01b031690631e81756290608401600060405180830381600087803b1580156112e757600080fd5b505af11580156112fb573d6000803e3d6000fd5b50506040516305b64bd360e41b815260048101899052336024820152600092507f00000000000000000000000000000000000000000000000000000000000000006001600160a01b03169150635b64bd30906044016040805180830381865afa15801561136c573d6000803e3d6000fd5b505050506040513d601f19601f8201168201806040525081019061139091906121ed565b805160408051878152602081018790526001600160401b0390921690820152909150339088907f0e2fcdd78f7f0b4b2eb8150829650c30cfc3c9c8cf267afe9368be6934a52ec59060600160405180910390a350505050506113f26001600255565b5050565b6113fe611934565b61140661195c565b604051630b91e28d60e01b8152600481018390526000907f00000000000000000000000000000000000000000000000000000000000000006001600160a01b031690630b91e28d9060240160a060405180830381865afa15801561146e573d6000803e3d6000fd5b505050506040513d601f19601f820116820180604052508101906114929190612140565b805190915060008190036114b85760405162bfc92160e01b815260040160405180910390fd5b828111156114d85760405162bfc92160e01b815260040160405180910390fd5b6114e181611b76565b60006114ec82611bb6565b905060006114fa8284612117565b905080156115a357602084015161153c906001600160a01b037f0000000000000000000000000000000000000000000000000000000000000000169083611c55565b6020840151604051631823a5a360e31b8152336004820152602481018390526001600160a01b039091169063c11d2d1890604401600060405180830381600087803b15801561158a57600080fd5b505af115801561159e573d6000803e3d6000fd5b505050505b6040516313dfbea760e21b815233600482015260248101879052604481018490527f00000000000000000000000000000000000000000000000000000000000000006001600160a01b031690634f7efa9c90606401600060405180830381600087803b15801561161257600080fd5b505af1158015611626573d6000803e3d6000fd5b505060408051868152602081018690523393508992507fead43b71f690f74c35127d2437a13bb7a913033f0b86728d1281e33effa6b617910160405180910390a3505050506113f26001600255565b60008281526020819052604090206001015461169081611a1d565b6109358383611ab9565b6000818152600660205260408120606091805b8254811015611725576000858152600560205260408120845482908690859081106116da576116da61225b565b60009182526020808320909101546001600160a01b031683528201929092526040019020905061170981611cef565b1561171c578261171881612271565b9350505b506001016116ad565b50806001600160401b0381111561173e5761173e61212a565b60405190808252806020026020018201604052801561179757816020015b6040805160a08101825260008082526020808301829052928201819052606082018190526080820152825260001990920191018161175c5790505b5092506000805b835481101561188f576000868152600560205260408120855482908790859081106117cb576117cb61225b565b60009182526020808320909101546001600160a01b03168352820192909252604001902090506117fa81611cef565b15611886576040805160a08101825282546001600160a01b031681526001830154602082015260028301546001600160401b0380821693830193909352600160401b81049092166060820152600160801b90910460ff1615156080820152865187908590811061186c5761186c61225b565b6020026020010181905250828061188290612271565b9350505b5060010161179e565b50505050919050565b6000805160206122c48339815191526118b081611a1d565b6001600160a01b0382166118d75760405163e6c4247b60e01b815260040160405180910390fd5b6003546040516001600160a01b038085169216907f4ab5be82436d353e61ca18726e984e561f5c1cc7c6d38b29d2553c790434705a90600090a350600380546001600160a01b0319166001600160a01b0392909216919091179055565b600280540361195657604051633ee5aeb560e01b815260040160405180910390fd5b60028055565b60015460ff16156119805760405163d93c066560e01b815260040160405180910390fd5b565b6000816001600160401b031660000361199d57506000919050565b6004546001600160401b0316158015906119c557506004546001600160401b03908116908316115b156119e357604051634a94fa8360e11b815260040160405180910390fd5b60008242019050426001600160401b0316816001600160401b0316101561053957604051634a94fa8360e11b815260040160405180910390fd5b610a5b8133611d59565b6000611a338383610fca565b611ab1576000838152602081815260408083206001600160a01b03861684529091529020805460ff19166001179055611a693390565b6001600160a01b0316826001600160a01b0316847f2f8788117e7eff1d82e926ec794901d17c78024a50270940304540a733656f0d60405160405180910390a4506001610539565b506000610539565b6000611ac58383610fca565b15611ab1576000838152602081815260408083206001600160a01b0386168085529252808320805460ff1916905551339286917ff6391f5c32d9c69d2a47ea670b442974b53935d1edc7fd64eb21e047a839171b9190a4506001610539565b611b2c611d92565b6001805460ff191690557f5db9ee0a495bf2e6ff9c91a7834c1ba4fdd244a5e8aa4e537bd38aeae4b073aa335b6040516001600160a01b03909116815260200160405180910390a1565b80600003611b815750565b610a5b6001600160a01b037f000000000000000000000000000000000000000000000000000000000000000016333084611db5565b600354600090600160a01b90046001600160601b03161580611bd6575081155b15611be357506000919050565b60035461271090611c0490600160a01b90046001600160601b03168461228a565b611c0e91906122a1565b90508015611c5057600354611c50906001600160a01b037f00000000000000000000000000000000000000000000000000000000000000008116911683611c55565b919050565b6040516001600160a01b0383811660248301526044820183905261090b91859182169063a9059cbb906064015b604051602081830303815290604052915060e01b6020820180516001600160e01b038381831617835250505050611dee565b611cbc61195c565b6001805460ff1916811790557f62e78cea01bee320cd4e420270b5ea74000d11b0c9f74754ebdbfc544b05a25833611b59565b6002810154600090600160801b900460ff16611d0d57506000919050565b6002820154600160401b90046001600160401b031615801590611d445750600282015442600160401b9091046001600160401b0316105b15611d5157506000919050565b506001919050565b611d638282610fca565b6113f25760405163e2517d3f60e01b81526001600160a01b038216600482015260248101839052604401610701565b60015460ff1661198057604051638dfc202b60e01b815260040160405180910390fd5b6040516001600160a01b0384811660248301528381166044830152606482018390526109359186918216906323b872dd90608401611c82565b600080602060008451602086016000885af180611e11576040513d6000823e3d81fd5b50506000513d91508115611e29578060011415611e36565b6001600160a01b0384163b155b1561093557604051635274afe760e01b81526001600160a01b0385166004820152602401610701565b600060208284031215611e7157600080fd5b81356001600160e01b031981168114611e8957600080fd5b9392505050565b6001600160401b0381168114610a5b57600080fd5b600080600060608486031215611eba57600080fd5b83359250602084013591506040840135611ed381611e90565b809150509250925092565b600060208284031215611ef057600080fd5b5035919050565b6001600160a01b0381168114610a5b57600080fd5b60008060408385031215611f1f57600080fd5b823591506020830135611f3181611ef7565b809150509250929050565b600060208284031215611f4e57600080fd5b8135611e8981611e90565b600060208284031215611f6b57600080fd5b81356001600160601b0381168114611e8957600080fd5b600080600060608486031215611f9757600080fd5b833592506020840135611fa981611ef7565b929592945050506040919091013590565b60018060a01b038151168252602081015160208301526001600160401b0360408201511660408301526001600160401b0360608201511660608301526080810151151560808301525050565b60a081016105398284611fba565b6000806040838503121561202757600080fd5b50508035926020909101359150565b602080825282518282018190526000918401906040840190835b8181101561207957612063838551611fba565b6020939093019260a09290920191600101612050565b509095945050505050565b60006020828403121561209657600080fd5b8135611e8981611ef7565b6000602082840312156120b357600080fd5b5051919050565b6000806000606084860312156120cf57600080fd5b835180151581146120df57600080fd5b60208501519093506120f081611e90565b6040850151909250611ed381611e90565b634e487b7160e01b600052601160045260246000fd5b8181038181111561053957610539612101565b634e487b7160e01b600052604160045260246000fd5b600060a082840312801561215357600080fd5b5060405160009060a081016001600160401b038111828210171561218557634e487b7160e01b83526041600452602483fd5b604052835181526020840151915061219c82611ef7565b816020820152604084015191506121b282611ef7565b816040820152606084015191506121c882611e90565b816060820152608084015191506121de82611e90565b60808101919091529392505050565b6000604082840312801561220057600080fd5b50604080519081016001600160401b038111828210171561223157634e487b7160e01b600052604160045260246000fd5b604052825161223f81611e90565b8152602083015161224f81611e90565b60208201529392505050565b634e487b7160e01b600052603260045260246000fd5b60006001820161228357612283612101565b5060010190565b808202811582820484141761053957610539612101565b6000826122be57634e487b7160e01b600052601260045260246000fd5b50049056fe241ecf16d79d0f8dbfb92cbc07fe17840425976cf0667f022fe9877caa831b08a264697066735822122012656e89041b8a2c7b98d439e100ebd8519f3b7d8ec101480e095331e2de0c0e64736f6c634300081c0033",
  "linkReferences": {},
  "deployedLinkReferences": {}
}