{
  "_format": "hh-sol-artifact-1",
  "contractName": "SplitPayout",
  "sourceName": "contracts/helpers/SplitPayout.sol",
  "abi": [
    {
      "inputs": [
        {
          "internalType": "address",
          "name": "membership_",
          "type": "address"
        },
        {
          "internalType": "address",
          "name": "marketplace_",
          "type": "address"
        },
        {
          "internalType": "contract IERC20",
          "name": "payoutToken_",
          "type": "address"
        },
        {
          "internalType": "address[]",
          "name": "_recipients",
          "type": "address[]"
        },
        {
          "internalType": "uint32[]",
          "name": "_sharesBps",
          "type": "uint32[]"
        }
      ],
      "stateMutability": "nonpayable",
      "type": "constructor"
    },
    {
      "inputs": [],
      "name": "InsufficientPayoutBalance",
      "type": "error"
    },
    {
      "inputs": [],
      "name": "InvalidRecipients",
      "type": "error"
    },
    {
      "inputs": [],
      "name": "InvalidShares",
      "type": "error"
    },
    {
      "inputs": [],
      "name": "NotRecipient",
      "type": "error"
    },
    {
      "inputs": [],
      "name": "ReentrancyGuardReentrantCall",
      "type": "error"
    },
    {
      "inputs": [
        {
          "internalType": "address",
          "name": "token",
          "type": "address"
        }
      ],
      "name": "SafeERC20FailedOperation",
      "type": "error"
    },
    {
      "inputs": [],
      "name": "ZeroAddressRecipient",
      "type": "error"
    },
    {
      "inputs": [],
      "name": "ZeroPayment",
      "type": "error"
    },
    {
      "anonymous": false,
      "inputs": [
        {
          "indexed": true,
          "internalType": "address",
          "name": "payer",
          "type": "address"
        },
        {
          "indexed": false,
          "internalType": "uint256",
          "name": "amount",
          "type": "uint256"
        }
      ],
      "name": "PaymentReceived",
      "type": "event"
    },
    {
      "anonymous": false,
      "inputs": [
        {
          "indexed": true,
          "internalType": "address",
          "name": "to",
          "type": "address"
        },
        {
          "indexed": false,
          "internalType": "uint256",
          "name": "amount",
          "type": "uint256"
        }
      ],
      "name": "PaymentReleased",
      "type": "event"
    },
    {
      "inputs": [],
      "name": "TOTAL_BPS",
      "outputs": [
        {
          "internalType": "uint32",
          "name": "",
          "type": "uint32"
        }
      ],
      "stateMutability": "view",
      "type": "function"
    },
    {
      "inputs": [],
      "name": "marketplace",
      "outputs": [
        {
          "internalType": "address",
          "name": "",
          "type": "address"
        }
      ],
      "stateMutability": "view",
      "type": "function"
    },
    {
      "inputs": [],
      "name": "membership",
      "outputs": [
        {
          "internalType": "address",
          "name": "",
          "type": "address"
        }
      ],
      "stateMutability": "view",
      "type": "function"
    },
    {
      "inputs": [],
      "name": "payoutToken",
      "outputs": [
        {
          "internalType": "contract IERC20",
          "name": "",
          "type": "address"
        }
      ],
      "stateMutability": "view",
      "type": "function"
    },
    {
      "inputs": [
        {
          "internalType": "address",
          "name": "account",
          "type": "address"
        }
      ],
      "name": "pending",
      "outputs": [
        {
          "internalType": "uint256",
          "name": "",
          "type": "uint256"
        }
      ],
      "stateMutability": "view",
      "type": "function"
    },
    {
      "inputs": [],
      "name": "recipientCount",
      "outputs": [
        {
          "internalType": "uint256",
          "name": "",
          "type": "uint256"
        }
      ],
      "stateMutability": "view",
      "type": "function"
    },
    {
      "inputs": [
        {
          "internalType": "uint256",
          "name": "",
          "type": "uint256"
        }
      ],
      "name": "recipients",
      "outputs": [
        {
          "internalType": "address",
          "name": "",
          "type": "address"
        }
      ],
      "stateMutability": "view",
      "type": "function"
    },
    {
      "inputs": [
        {
          "internalType": "address",
          "name": "payer",
          "type": "address"
        },
        {
          "internalType": "uint256",
          "name": "amount",
          "type": "uint256"
        }
      ],
      "name": "recordPayment",
      "outputs": [],
      "stateMutability": "nonpayable",
      "type": "function"
    },
    {
      "inputs": [
        {
          "internalType": "address",
          "name": "account",
          "type": "address"
        }
      ],
      "name": "release",
      "outputs": [],
      "stateMutability": "nonpayable",
      "type": "function"
    },
    {
      "inputs": [
        {
          "internalType": "address",
          "name": "",
          "type": "address"
        }
      ],
      "name": "released",
      "outputs": [
        {
          "internalType": "uint256",
          "name": "",
          "type": "uint256"
        }
      ],
      "stateMutability": "view",
      "type": "function"
    },
    {
      "inputs": [
        {
          "internalType": "uint256",
          "name": "",
          "type": "uint256"
        }
      ],
      "name": "sharesBps",
      "outputs": [
        {
          "internalType": "uint32",
          "name": "",
          "type": "uint32"
        }
      ],
      "stateMutability": "view",
      "type": "function"
    },
    {
      "inputs": [],
      "name": "totalReceived",
      "outputs": [
        {
          "internalType": "uint256",
          "name": "",
          "type": "uint256"
        }
      ],
      "stateMutability": "view",
      "type": "function"
    },
    {
      "inputs": [],
      "name": "totalReleased",
      "outputs": [
        {
          "internalType": "uint256",
          "name": "",
          "type": "uint256"
        }
      ],
      "stateMutability": "view",
      "type": "function"
    }
  ],
  "bytecode": "0x60e060405234801561001057600080fd5b50604051610f42380380610f4283398101604081905261002f91610486565b60016000556001600160a01b03851661008f5760405162461bcd60e51b815260206004820152601760248201527f4d656d626572736869702061646472657373207a65726f00000000000000000060448201526064015b60405180910390fd5b6001600160a01b0384166100e55760405162461bcd60e51b815260206004820152601860248201527f4d61726b6574706c6163652061646472657373207a65726f00000000000000006044820152606401610086565b6001600160a01b03831661013b5760405162461bcd60e51b815260206004820152601960248201527f5061796f757420746f6b656e2061646472657373207a65726f000000000000006044820152606401610086565b8151158061014b57508051825114155b1561016957604051635d5eb16d60e11b815260040160405180910390fd5b6000805b83518110156101f75760006001600160a01b03168482815181106101935761019361058c565b60200260200101516001600160a01b0316036101c2576040516308c9926560e31b815260040160405180910390fd5b8281815181106101d4576101d461058c565b602002602001015163ffffffff16826101ed91906105a2565b915060010161016d565b50612710811461021a57604051636edcc52360e01b815260040160405180910390fd5b6001600160a01b0380871660805285811660a052841660c0528251610246906003906020860190610266565b50815161025a9060049060208501906102cb565b505050505050506105c9565b8280548282559060005260206000209081019282156102bb579160200282015b828111156102bb57825182546001600160a01b0319166001600160a01b03909116178255602090920191600190910190610286565b506102c7929150610371565b5090565b828054828255906000526020600020906007016008900481019282156102bb5791602002820160005b8382111561033857835183826101000a81548163ffffffff021916908363ffffffff16021790555092602001926004016020816003010492830192600103026102f4565b80156103685782816101000a81549063ffffffff0219169055600401602081600301049283019260010302610338565b50506102c79291505b5b808211156102c75760008155600101610372565b6001600160a01b038116811461039b57600080fd5b50565b634e487b7160e01b600052604160045260246000fd5b604051601f8201601f191681016001600160401b03811182821017156103dc576103dc61039e565b604052919050565b60006001600160401b038211156103fd576103fd61039e565b5060051b60200190565b600082601f83011261041857600080fd5b815161042b610426826103e4565b6103b4565b8082825260208201915060208360051b86010192508583111561044d57600080fd5b602085015b8381101561047c57805163ffffffff8116811461046e57600080fd5b835260209283019201610452565b5095945050505050565b600080600080600060a0868803121561049e57600080fd5b85516104a981610386565b60208701519095506104ba81610386565b60408701519094506104cb81610386565b60608701519093506001600160401b038111156104e757600080fd5b8601601f810188136104f857600080fd5b8051610506610426826103e4565b8082825260208201915060208360051b85010192508a83111561052857600080fd5b6020840193505b8284101561055357835161054281610386565b82526020938401939091019061052f565b60808a0151909550925050506001600160401b0381111561057357600080fd5b61057f88828901610407565b9150509295509295909350565b634e487b7160e01b600052603260045260246000fd5b808201808211156105c357634e487b7160e01b600052601160045260246000fd5b92915050565b60805160a05160c05161092e6106146000396000818161012d0152818161034001526105510152600081816101cf01526104aa01526000818161019f0152610478015261092e6000f3fe608060405234801561001057600080fd5b50600436106100cf5760003560e01c8063a2bf68b91161008c578063c11d2d1811610066578063c11d2d18146101f1578063d1bc76a114610204578063d3cd52bc14610217578063e33b7de31461022057600080fd5b8063a2bf68b91461019a578063a3c2c462146101c1578063abc8c7af146101ca57600080fd5b80630750986b146100d4578063191655871461010157806322eabb8e146101165780634efa82b6146101285780635eebea20146101675780639852595c1461017a575b600080fd5b6100e76100e23660046107cd565b610229565b60405163ffffffff90911681526020015b60405180910390f35b61011461010f366004610802565b610263565b005b6003545b6040519081526020016100f8565b61014f7f000000000000000000000000000000000000000000000000000000000000000081565b6040516001600160a01b0390911681526020016100f8565b61011a610175366004610802565b6103b8565b61011a610188366004610802565b60056020526000908152604090205481565b61014f7f000000000000000000000000000000000000000000000000000000000000000081565b61011a60015481565b61014f7f000000000000000000000000000000000000000000000000000000000000000081565b6101146101ff366004610824565b61046d565b61014f6102123660046107cd565b61064e565b6100e761271081565b61011a60025481565b6004818154811061023957600080fd5b9060005260206000209060089182820401919006600402915054906101000a900463ffffffff1681565b61026b610678565b600019610277826106a2565b036102955760405163586d335760e01b815260040160405180910390fd5b60006102a0826103b8565b9050600081116102ec5760405162461bcd60e51b81526020600482015260126024820152714e6f7468696e6720746f2072656c6561736560701b60448201526064015b60405180910390fd5b6001600160a01b03821660009081526005602052604081208054839290610314908490610864565b92505081905550806002600082825461032d9190610864565b9091555061036790506001600160a01b037f00000000000000000000000000000000000000000000000000000000000000001683836106ff565b816001600160a01b03167fdf20fd1e76bc69d672e4814fafb2c449bba3a5369d8359adf9e05e6fde87b056826040516103a291815260200190565b60405180910390a2506103b56001600055565b50565b6000806103c4836106a2565b905060001981036103d85750600092915050565b6000600482815481106103ed576103ed61087d565b90600052602060002090600891828204019190066004029054906101000a900463ffffffff1663ffffffff169050600061271063ffffffff16826001546104349190610893565b61043e91906108aa565b6001600160a01b03861660009081526005602052604090205490915061046490826108cc565b95945050505050565b336001600160a01b037f00000000000000000000000000000000000000000000000000000000000000001614806104cc5750336001600160a01b037f000000000000000000000000000000000000000000000000000000000000000016145b6105185760405162461bcd60e51b815260206004820152601e60248201527f4f6e6c79206d656d62657273686970206f72206d61726b6574706c616365000060448201526064016102e3565b80600003610539576040516311e51d5160e31b815260040160405180910390fd5b6040516370a0823160e01b81523060048201526000907f00000000000000000000000000000000000000000000000000000000000000006001600160a01b0316906370a0823190602401602060405180830381865afa1580156105a0573d6000803e3d6000fd5b505050506040513d601f19601f820116820180604052508101906105c491906108df565b9050816001546105d49190610864565b8110156105f45760405163011611ad60e11b815260040160405180910390fd5b81600160008282546106069190610864565b90915550506040518281526001600160a01b038416907f6ef95f06320e7a25a04a175ca677b7052bdd97131872c2192525a629f51be7709060200160405180910390a2505050565b6003818154811061065e57600080fd5b6000918252602090912001546001600160a01b0316905081565b60026000540361069b57604051633ee5aeb560e01b815260040160405180910390fd5b6002600055565b6000805b6003548110156106f557826001600160a01b0316600382815481106106cd576106cd61087d565b6000918252602090912001546001600160a01b0316036106ed5792915050565b6001016106a6565b5060001992915050565b604080516001600160a01b038416602482015260448082018490528251808303909101815260649091019091526020810180516001600160e01b031663a9059cbb60e01b179052610751908490610756565b505050565b600080602060008451602086016000885af180610779576040513d6000823e3d81fd5b50506000513d9150811561079157806001141561079e565b6001600160a01b0384163b155b156107c757604051635274afe760e01b81526001600160a01b03851660048201526024016102e3565b50505050565b6000602082840312156107df57600080fd5b5035919050565b80356001600160a01b03811681146107fd57600080fd5b919050565b60006020828403121561081457600080fd5b61081d826107e6565b9392505050565b6000806040838503121561083757600080fd5b610840836107e6565b946020939093013593505050565b634e487b7160e01b600052601160045260246000fd5b808201808211156108775761087761084e565b92915050565b634e487b7160e01b600052603260045260246000fd5b80820281158282048414176108775761087761084e565b6000826108c757634e487b7160e01b600052601260045260246000fd5b500490565b818103818111156108775761087761084e565b6000602082840312156108f157600080fd5b505191905056fea2646970667358221220361d825e3d65bed11707574776e9a1053b3cab6546118a30dccc732fda4bcb8a64736f6c634300081c0033",
  "linkReferences": {},
  "deployedLinkReferences": {}
}